:0300000002028277
:0C028200787FE4F6D8FD75811D020104B0
:0501BF001201C4D2A1F1
:1001C4007F01EFD394007480948040127E02EED3BA
:0E01D40094007480948040031E80F31F80E42A
:0101E20022FA
:0F027300D2A01201BFC2A01201C4C2A10201C4D5
:0A028E00C2A01201BFD2A00201C4F9
:0200B000AB079C
:1000B200E4FAEAC3940874809480501AEBC41313D0
:1000C20013540124FF92A0EB25E0FB1201BFC2A151
:1000D2001201C40A80DCD2A01201C4D2A130A01A3B
:1000E200ED640170150519D3E51994C874809480E4
:1000F20040EBC2A11201C47F0022C2A11201C47F3F
:0101020001FB
:0101030022D9
:10013B00D2A01201C4E4FCECC394087480948050E8
:10014B001AD2A11201C4ED25E0FDA2A0E4334205B1
:0D015B001201C4C2A11201C40C80DCAF056A
:010168002274
:100104007508AB12021BAD087F021201E37F0212D5
:1001140001698F09751A00751B00751C09751D048A
:100124007B007A00790D1200037B007A00790DE4DC
:07013400FDFF12020580FE31
:020169008F17EE
:10016B001202737D017FA01200B0EF60F37D01AF2F
:10017B00171200B01202737D017FA11200B01201A1
:08018B003B8F1812028EAF1821
:010193002249
:1001E3008F178D181202737D017FA01200B0EF608C
:1001F300F37D01AF171200B0E4FDAF181200B00297
:02020300028E69
:060003008B178A18891911
:10000900AF1D151DEF70030200AFAB1AAA1BA91C87
:10001900120194C4540FFFD3940974809480501230
:10002900EF2430FEAB170519E519AA187014051845
:100039008010EF2437FEAB170519E519AA187002CD
:10004900051814F9EE1201ADAB1AAA1BA91C12016D
:1000590094540FFFD39409748094805012EF243084
:10006900FFAB170519E519AA18701405188010EFC8
:100079002437FFAB170519E519AA187002051814DA
:10008900F9EF1201ADAB170519E519AA18700205A8
:100099001814F974201201AD7401251CF51CE435FE
:0600A9001BF51B0200091B
:0100AF00222E
:10021B007F381202537F0C1202537F061202537F58
:04022B000102025377
:10022F007580FFC2A6D2A5D2A7AF80C2A7EF20E7E5
:01023F00F6C8
:01024000229B
:10025300AE0712022FC2A6C2A58E80D2A7C2A722C2
:10026300AE0712022FD2A6C2A58E80D2A7C2A722A2
:10024100ED7004AC078004EF2440FCEC4480FF0215
:02025100025356
:10020500120241120194FF600C120263740129F974
:06021500E43AFA80EE223B
:10019400BB010689828A83E0225002E722BBFE0269
:0901A400E32289828A83E493229C
:1001AD00BB010689828A83F0225002F722BBFE0131
:0201BD00F3222B
:00000001FF
