:03000000020314E4
:0C031400787FE4F6D8FD758140020125D9
:1002AB007F381202F47F0C1202F47F061202F47FE5
:0402BB00010202F446
:1002BF007580FFC2A6D2A5D2A7AF80C2A7EF20E755
:0102CF00F638
:0102D000220B
:1002F400AE071202BFC2A6C2A58E80D2A7C2A72291
:10030400AE071202BFD2A6C2A58E80D2A7C2A72270
:1002D100ED7004AC078004EF2440FCEC4480FF0285
:0202E10002F425
:100280001202D1120255FF600C120304740129F905
:06029000E43AFA80EE22C0
:1002E300D2A0D2A100000000C2A000000000C2A161
:0102F30022E8
:10029600C2A1C2A000000000D2A100000000D2A0AE
:0502A600000000002231
:1001B400E53F601D5F7004C2A08002D2A000000071
:1001C40000D2A100000000C2A1E53FC313F53F80A7
:1001D400DFD2A000000000D2A100000000A2A09283
:0A01E4000000000000C2A1A200B359
:0101EE0022EE
:1001EF00D2A07E80EE601D00000000D2A120A005ED
:1001FF00F452078003EE420700000000C2A1EEC3D5
:10020F0013FE80E0D2A000000000D2A10000000089
:02021F00C2A17A
:0102210022BA
:10022200D2A07E80EE601D00000000D2A120A005B9
:10023200F452078003EE420700000000C2A1EEC3A1
:1002420013FE80E0C2A000000000D2A10000000066
:02025200C2A147
:010254002287
:100125001202AB1200C21200037B007A007926E4AA
:10013500FDFF120280E4FFEFC394057480948050A4
:100145000B74212FF8E6042FF60F80EB7B007A0065
:100155007921753E05E4FD1201741200C2120003F7
:0F0165007B007A0079267D01E4FF12028080FE84
:10000300753D00753E00753F217540057B007A0004
:0200130079264C
:060015008B3A8A3B893C96
:10001B00AF401540EF70030200C1AB3DAA3EA93FB4
:10002B00120255C4540FFFD394097480948050125C
:10003B00EF2430FEAB3A053CE53CAA3B7014053B84
:10004B008010EF2437FEAB3A053CE53CAA3B70022F
:10005B00053B14F9EE12026EAB3DAA3EA93F12020C
:10006B0055540FFFD39409748094805012EF2430B1
:10007B00FFAB3A053CE53CAA3B7014053B8010EF07
:10008B002437FFAB3A053CE53CAA3B7002053B1419
:10009B00F9EF12026EAB3A053CE53CAA3B70020548
:1000AB003B14F9742012026E7401253FF53FE435C1
:0600BB003EF53E02001BB1
:0100C100221C
:0B00C2007B007A007921753E05E4FD0B
:1000CD008B3A8A3B893C8D3D1202E37FA01201B42D
:1000DD00400512029680F1AF3D1201B41202E37F8A
:1000ED00A11201B4D3E53E9401748094804019129D
:1000FD000222AB3A053CE53CAA3B7002053B14F9E4
:10010D00EF12026E153E80DC1201EFAB3AAA3BA94D
:08011D003CEF12026E02029693
:100174008B3A8A3B893C8D3DAF3E153EEF60301291
:1001840002E37FA01201B4400512029680F1AF3D54
:10019400053D1201B4AB3A053CE53CAA3B700205AF
:1001A4003B14F9120255FF1201B412029680C922BF
:10025500BB010689828A83E0225002E722BBFE02A7
:09026500E32289828A83E49322DA
:10026E00BB010689828A83F0225002F722BBFE016F
:02027E00F32269
:00000001FF
