:0300000002037385
:0C037300787FE4F6D8FD7581400203BAE3
:10000E007F381208D67F0C1208D67F061208D67FCC
:04001E00010208D6FD
:1008A1007580FFC2A6D2A5D2A7AF80C2A7EF20E76D
:0108B100F650
:0108B2002223
:1008D600AE071208A1C2A6C2A58E80D2A7C2A722C1
:1008E600AE071208A1D2A6C2A58E80D2A7C2A722A1
:1008B300ED7004AC078004EF2440FCEC4480FF029D
:0208C30008D655
:10088B001208B312011CFF600C1208E6740129F95F
:06089B00E43AFA80EE22AF
:1008C5001208B3AF031BEF60077F201208E680F321
:0108D5002200
:100549008B328A3389348D351209057FA012076CE5
:1005590050F6AF3512076C1209057FA112076CD34B
:10056900E5369401748094804019120740AB320536
:1005790034E534AA337002053314F9EF1201351545
:100589003680DC120797AB32AA33A934EF12013552
:030599000208F65F
:1004F2008B3A8A3B893C8D3DD3E53E9400748094CF
:100502008040431209057FA012076C40051208F6CD
:1005120080F1AF3D12076CD3E53E94007480948065
:10052200401FAB3A053CE53CAA3B7002053B14F97F
:1005320012011CFF12076C153E053DE53D54077084
:07054200D61208F680B22278
:07081000D2A0120817D2A1CB
:100817007F01EFD394007480948040127E02EED360
:0E08270094007480948040031E80F31F80E4D0
:0108350022A0
:0D090500120810C2A0120817C2A1020817A4
:0F08F600C2A1120817C2A0120812D2A00208173E
:02076C00AD07D7
:10076E007C80EC60145D7004C2A08002D2A01208DE
:10077E0012C2A1ECC313FC80E9120810A2A09202CF
:08078E00120817C2A1A202B378
:010796002240
:10079700D2A07C80EC601B120817D2A1EC20A00528
:1007A700F4520580024205120817C2A1ECC313FCDC
:0907B70080E2120810C2A1AF0596
:0107C0002216
:10074000D2A07C80EC601B120817D2A1EC20A0057F
:10075000F4520580024205120817C2A1ECC313FC33
:0B07600080E2C2A0120812C2A1AF0587
:01076B00226B
:1007C10073686F7773747231200073686F77737415
:1007D1007232200062616420636F6D6D616D642E01
:0807E1000A00090907C107CB5A
:0C087100040A01770000010800010900E2
:10083600D2AF7F017E001203FF7F807E257D007C84
:0F0846000012059C12000E12066612085580FB68
:10066600E4F531FB7A0079217536107D20120549B3
:100676007B007A007921E4FDFF12088B7B007A006B
:1006860079217536107D401205497B007A00792163
:070696007D01E4FF02088B67
:10069D008B3A8A3B893CAF401540EF6028AB3D0556
:1006AD003FE53FAA3E7002053E14F912011CFFAB57
:1006BD003A053CE53CAA3B7002053B14F912011CBE
:0706CD006F60D3C322D322AA
:10048500E4937E002523F9EE352285213DF53E894D
:070495003F7B007A0079258E
:06049C008B3A8A3B893C0B
:1004A200E4FFAB3DAA3EA93F12011C602B053FE5CC
:1004B2003F7002053E14F912011CFEAB3A053CE501
:1004C2003CAA3B7002053B14F9EE1201350FEFC353
:1004D20094107480948040CAEFC394107480948006
:0F04E200500DAB3AAA3BA93CE41201350F80E95B
:0104F10022E8
:0403FF008E218F229A
:10040300E47B0CFAF9F8AF0DAE0CAD0BAC0A12019C
:10041300F4E47BE87A03F9F81201F4A804A905AA25
:1004230006AB07AE21AF22E4FCFD1201698F268ED5
:10043300258D248C23C3E49526F526E49525F525FF
:1004430074019524F524E49523F523E5262421F569
:1004530026E43525F525E43524F524E43523F52371
:10046300AF26AE25AD24FC78081202868F088526B8
:10047300095389F043890185088C85098AD2A9D259
:010483008CEC
:010484002255
:03000B000205EB00
:1005EB00C0E0C0F0C083C082C0D075D000C000C0D6
:1005FB0001C002C003C004C005C006C00785088C3B
:10060B0085098A7F0112062ED007D006D005D004AB
:10061B00D003D002D001D000D0D0D082D083D0F084
:03062B00D0E032EA
:080299008B218A2289238D24A8
:1002A10078367C007D007BFF7A0779E57E007F044C
:1002B1001200F6E4FEEEC3940274809480502FEE97
:1002C1009007E393FFE524C39F4020EE25E0243609
:1002D100F8E6FC08E6AA04753DFF8A3EF53F8F402B
:1002E100AB21AA22A92312069D40030E80C7EE145A
:1002F100603A047071AB21AA22A9238524827583F7
:1003010000E41201479007E31204857B10E4FDFF2E
:100311001208C57B007A007925E4FDFF12088B7B6A
:10032100007A007925753E117D208037AB21AA2204
:10033100A923852482758300E41201479007E41202
:1003410004857B107D01E4FF1208C57B007A0079EA
:10035100257D01E4FF12088B7B007A007925753E2B
:10036100117D400204F27BFF7A0779D57D0D1207DA
:01037100E9A2
:010372002268
:0D087D00C100C101011000010E00010F00BB
:10059C008E218F2275985053890F43892043878071
:1005AC00E47B0CFAF9F8AF0DAE0CAD0BAC0A1201F2
:1005BC00F4E47B10FAF9F81201F4C006C007AE217E
:1005CC00AF22AB07AA06E4F9F8D007D0061201F463
:0F05DC00EFF404F58D858D8BC2ABD2ACD28E229D
:030023000206D4FE
:1006D400C0E0C0D075D000C000C007309818C298E0
:1006E400C3E510944074809480500BAF10051074CF
:1006F400002FF8E599F2309904C299D201D007D0BD
:0607040000D0D0D0E0326D
:1007E9008B3A8A3B893CAF051DEF601AC201AB3ACF
:1007F900053CE53CAA3B7002053B14F912011CF5C6
:07080900992001E280FB22AF
:06070A008B218A228923E5
:10071000EDD395104002AD10E4FFEFC39D501B7464
:10072000002FF8E2FEAB210523E523AA2270020583
:0F0730002214F9EE1201350F80E0E4F510AF0549
:01073F002297
:10062E00E510D39400748094804029E50E65106027
:10063E000785100EE4F50F22E50FC3941E74809407
:10064E00805014EF250FF50FC3941E7480948040D4
:07065E0006D20022E4F50EB4
:010665002272
:10085500300018C2007BFE7A0079407D2812070A15
:0B086500AD077BFE7A0079401202997B
:010870002265
:10037F00020836E493A3F8E493A34003F68001F256
:10038F0008DFF48029E493A3F85407240CC8C3337F
:10039F00C4540F4420C8834004F456800146F6DF4E
:1003AF00E4800B0102040810204080900871E47E65
:1003BF00019360BCA3FF543F30E509541FFEE49343
:1003CF00A360010ECF54C025E060A840B8E493A30A
:1003DF00FAE493A3F8E493A3C8C582C8CAC583CA35
:1003EF00F0A3C8C582C8CAC583CADFE9DEE780BEED
:01088A00006D
:10002600E709F608DFFA8046E709F208DFFA803EBC
:1000360088828C83E709F0A3DFFA8032E309F608A9
:10004600DFFA8078E309F208DFFA807088828C8311
:10005600E309F0A3DFFA806489828A83E0A3F608C5
:10006600DFFA805889828A83E0A3F208DFFA804C9F
:1000760080D280FA80C680D4806980F28033801076
:1000860080A680EA809A80A880DA80E280CA8033DF
:1000960089828A83ECFAE493A3C8C582C8CCC58357
:1000A600CCF0A3C8C582C8CCC583CCDFE9DEE78027
:1000B6000D89828A83E493A3F608DFF9ECFAA9F0A6
:1000C600EDFB2289828A83ECFAE0A3C8C582C8CCFC
:1000D600C583CCF0A3C8C582C8CCC583CCDFEADE15
:1000E600E880DB89828A83E493A3F208DFF980CC77
:1000F60088F0EF60010E4E60C388F0ED2402B40470
:100106000050B9F582EB2402B4040050AF23234516
:06011600822390007673C5
:10011C00BB010689828A83E0225002E722BBFE02E1
:09012C00E32289828A83E4932214
:10013500BB010689828A83F0225002F722BBFE01A9
:02014500F322A3
:10014700F8BB010DE58229F582E5833AF583E8F0EE
:10015700225006E92582C8F622BBFE05E92582C89A
:02016700F22282
:10016900E88FF0A4CC8BF0A42CFCE98EF0A42CFC35
:100179008AF0EDA42CFCEA8EF0A4CDA8F08BF0A4B3
:100189002DCC3825F0FDE98FF0A42CCD35F0FCEB12
:100199008EF0A4FEA9F0EB8FF0A4CFC5F02ECD39D7
:0F01A900FEE43CFCEAA42DCE35F0FDE43CFC2244
:1001B80075F008758200EF2FFFEE33FECD33CDCCFE
:1001C80033CCC58233C5829BED9AEC99E582984081
:1001D8000CF582EE9BFEED9AFDEC99FC0FD5F0D65E
:1001E800E4CEFBE4CDFAE4CCF9A88222B800C1B988
:1001F8000059BA002DEC8BF084CFCECDFCE5F0CBC6
:10020800F97818EF2FFFEE33FEED33FDEC33FCEBFE
:1002180033FB10D703994004EB99FB0FD8E5E4F9B9
:10022800FA227818EF2FFFEE33FEED33FDEC33FCA6
:10023800C933C910D7059BE99A4007EC9BFCE99A9A
:10024800F90FD8E0E4C9FAE4CCFB2275F010EF2FDF
:10025800FFEE33FEED33FDCC33CCC833C810D707DF
:100268009BEC9AE899400AED9BFDEC9AFCE899F81A
:0E0278000FD5F0DAE4CDFBE4CCFAE4C8F922AD
:10028600E8600FECC313FCED13FDEE13FEEF13FF56
:03029600D8F1227A
:00000001FF
