:030000000200FFFC
:0C00FF00787FE4F6D8FD758120020146F0
:0F03E60041494E302041494E312041494E3200AD
:0B041100C18001170001180001160057
:10018B00D2AF7F0A7E001202FA12037D7BFF7A0345
:10019B0079E6E4FDFF1203673000FDC2007B107DA2
:1001AB0001E4FF1203B5E4FF1202491201F27B00D6
:1001BB007A0079097D01E4FF1203677F011202497E
:1001CB001201F27B007A0079097D017F0612036729
:1001DB007F031202491201F27B007A0079097D013B
:0701EB007F0C12036780B1D5
:1002FA00E4FCFDFB7A08F9F81200B0EFF4042421BB
:10030A00751700F5185389F043890185178C8518EC
:05031A008AD2A9D28C7B
:01031F0022BB
:03000B00020346A7
:04034600C0E0C0D083
:10034A0085178C85188A0516C3E516941E74809441
:08035A00804005751600D20079
:05036200D0D0D0E03214
:0A01F2008F087B007A007909AD0840
:1001FC008B138A148915ED75F019A4FFAEF07C00F1
:10020C007DFF12005BAD07ED75F00A8424301200FF
:10021C0027AB13AA14A915900001742E120039ED06
:10022C0075F00A84E5F02430900002120039900039
:0D023C00037456120039900004E4020039EA
:020249008F1311
:10024B001204047F901202A540061203F57F0022D0
:10025B00E5134440FF1202A51204047F811202A58C
:0D026B001202791202D08F141203F5AF14A5
:010278002263
:10037D007F381203C67F0C1203C67F061203C67F99
:04038D00010203C6A0
:100391007580FFC2A6D2A5D2A7AF80C2A7EF20E782
:0103A100F665
:0103A2002238
:1003C600AE07120391C2A6C2A58E80D2A7C2A722EB
:1003D600AE07120391D2A6C2A58E80D2A7C2A722CB
:1003A300ED7004AC078004EF2440FCEC4480FF02B2
:0203B30003C67F
:100367001203A312000EFF600C1203D6740129F9C1
:06037700E43AFA80EE22D8
:1003B5001203A3AF031BEF60077F201203D680F360
:0103C5002215
:07032000D2A0120327D2A1B5
:100327007F01EFD394007480948040127E02EED355
:0E03370094007480948040031E80F31F80E4C5
:010345002295
:0D040400120320C2A0120327C2A102032789
:0F03F500C2A1120327C2A0120322D2A002032723
:0202A500AD07A3
:1002A7007C80EC60145D7004C2A08002D2A01203AF
:1002B70022C2A1ECC313FC80E9120320A2A0920181
:0802C700120327C2A1A201B33A
:0102CF00220C
:1002D000D2A07C80EC601B120327D2A1EC20A005E9
:1002E000F4520580024205120327C2A1ECC313FC9D
:0902F00080E2120320C2A1AF0557
:0102F90022E2
:10027900D2A07C80EC601B120327D2A1EC20A00540
:10028900F4520580024205120327C2A1ECC313FCF4
:0B02990080E2C2A0120322C2A1AF0548
:0102A4002237
:10010B0002018BE493A3F8E493A34003F68001F27E
:10011B0008DFF48029E493A3F85407240CC8C333F5
:10012B00C4540F4420C8834004F456800146F6DFC4
:10013B00E4800B0102040810204080900411E47E3F
:10014B00019360BCA3FF543F30E509541FFEE493B9
:10015B00A360010ECF54C025E060A840B8E493A380
:10016B00FAE493A3F8E493A3C8C582C8CAC583CAAB
:10017B00F0A3C8C582C8CAC583CADFE9DEE780BE63
:01041C0000DF
:10000E00BB010689828A83E0225002E722BBFE02F0
:09001E00E32289828A83E4932223
:10002700BB010689828A83F0225002F722BBFE01B8
:02003700F322B2
:10003900F8BB010DE58229F582E5833AF583E8F0FD
:10004900225006E92582C8F622BBFE05E92582C8A9
:02005900F22291
:10005B00BC000BBE0029EF8DF084FFADF022E4CC89
:10006B00F875F008EF2FFFEE33FEEC33FCEE9DEC52
:10007B00984005FCEE9DFE0FD5F0E9E4CEFD22ED98
:10008B00F8F5F0EE8420D21CFEADF075F008EF2FE2
:10009B00FFED33FD4007985006D5F0F222C398FDD3
:0500AB000FD5F0EA2270
:1000B000E88FF0A4CC8BF0A42CFCE98EF0A42CFCEF
:1000C0008AF0EDA42CFCEA8EF0A4CDA8F08BF0A46D
:1000D0002DCC3825F0FDE98FF0A42CCD35F0FCEBCC
:1000E0008EF0A4FEA9F0EB8FF0A4CFC5F02ECD3991
:0F00F000FEE43CFCEAA42DCE35F0FDE43CFC22FE
:00000001FF
