:0300000002000EED
:0C000E00787FE4F6D8FD758120020055D3
:100108003F065B4F666D7D077F6F777C395E79713F
:10011800C0F9A4B0999282F880908883C6A1868E8F
:05000300C1820108FFAD
:0E0128007FE87E03EF1FAC0670011E4C70F6E0
:0101360022A6
:10009A00D200D201E4FF90011893F58075A0FFD237
:1000AA00AF758901758CF8758ACDD2A9D28CA20256
:1000BA00300001B350F82000100FEFC3940A400239
:0F00CA00E4FFEF90011893F580A202920080DF0F
:03000B000200D917
:0900D900C0E0C0D075D000C007E2
:1000E200758CF8758ACDE50825E0FFA2A0E4334FB0
:0F00F200F5087004C2028007E508B4FF02D202CD
:07010100D007D0D0D0E0329E
:10001A0002009AE493A3F8E493A34003F68001F262
:10002A0008DFF48029E493A3F85407240CC8C333E7
:10003A00C4540F4420C8834004F456800146F6DFB6
:10004A00E4800B0102040810204080900003E47E43
:10005A00019360BCA3FF543F30E509541FFEE493AB
:10006A00A360010ECF54C025E060A840B8E493A372
:10007A00FAE493A3F8E493A3C8C582C8CAC583CA9D
:10008A00F0A3C8C582C8CAC583CADFE9DEE780BE55
:0100080000F7
:00000001FF
