:0300000002038E6A
:0C038E00787FE4F6D8FD7581160203D5D7
:10041A003F065B4F666D7D077F6F777C395E79712A
:10042A00C0F9A4B0999282F880908883C6A1868E7A
:10043A000808FFFFFFFFFFFFFFFF02140000041080
:07044A000000000001160094
:10000E00D2AFD2A9758901758CFC758A1AD28CAEC5
:10001E0014AF157C007D641201B2ED4C701FAE144E
:10002E00AF15FC7D641201B27C007D0A1201B27420
:10003E002A2DF58274043CF583E493F580C3E5150F
:10004E0094E8E514940340C7E4F514F515E513247C
:10005E0001F513E43512F512E43511F511E43510FE
:10006E00F510E47B0AFAF9F8AF13AE12AD11AC102D
:10007E00120243741A2BF58274043AF583E493F555
:10008E0008E47B0AFAF9F8AF13AE12AD11AC1012F8
:10009E000243E47B0AFAF9F8120243741A2BF58232
:1000AE0074043AF583E493F509E47B64FAF9F8AF46
:1000BE0013AE12AD11AC10120243E47B0AFAF9F83A
:1000CE00120243741A2BF58274043AF583E493F505
:1000DE000AE47BE87A03F9F8AF13AE12AD11AC1057
:1000EE00120243E47B0AFAF9F8120243741A2BF552
:1000FE008274043AF583E493F50BE47B107A27F9C6
:10010E00F8AF13AE12AD11AC10120243E47B0AFA33
:10011E00F9F8120243741A2BF58274043AF583E44B
:10012E0093F50C7BA07A8679017800AF13AE12ADF1
:10013E0011AC10120243E47B0AFAF9F8120243746E
:10014E001A2BF58274043AF583E493F50D7B407A0D
:10015E0042790F7800AF13AE12AD11AC10120243FC
:10016E00E47B0AFAF9F8120243741A2BF58274042E
:10017E003AF583E493F50E7B807A9679987800AF02
:10018E0013AE12AD11AC10120243E47B0AFAF9F869
:10019E00120243741A2BF58274043AF583E493F534
:0401AE000F02001D1F
:03000B000202D519
:1002D500C0E0C083C082C0D075D000C000758CFC62
:1002E500758A1A0515E5157002051475A000E51641
:1002F500B408004003020383900304F8282873021E
:10030500031C0203290203360203430203500203BE
:100315005D02036A020377D292D291D290051685C7
:1003250008A0805AD292D291C29005168509A08064
:100335004DD292C291D2900516850AA08040D292E4
:10034500C291C2900516850BA08033C292D291D27C
:10035500900516850CA08026C292D291C2900516F2
:10036500850DA08019C292C291D2900516850EA066
:10037500800CC292C291C290751600850FA0D00064
:09038500D0D0D082D083D0E03248
:10039A0002000EE493A3F8E493A34003F68001F26B
:1003AA0008DFF48029E493A3F85407240CC8C33364
:1003BA00C4540F4420C8834004F456800146F6DF33
:1003CA00E4800B010204081020408090043AE47E85
:1003DA00019360BCA3FF543F30E509541FFEE49328
:1003EA00A360010ECF54C025E060A840B8E493A3EF
:1003FA00FAE493A3F8E493A3C8C582C8CAC583CA1A
:10040A00F0A3C8C582C8CAC583CADFE9DEE780BED1
:0104510000AA
:1001B200BC000BBE0029EF8DF084FFADF022E4CC31
:1001C200F875F008EF2FFFEE33FEEC33FCEE9DECFA
:1001D200984005FCEE9DFE0FD5F0E9E4CEFD22ED40
:1001E200F8F5F0EE8420D21CFEADF075F008EF2F8A
:1001F200FFED33FD4007985006D5F0F222C398FD7B
:050202000FD5F0EA2217
:1002070075F008758200EF2FFFEE33FECD33CDCCAE
:1002170033CCC58233C5829BED9AEC99E582984031
:100227000CF582EE9BFEED9AFDEC99FC0FD5F0D60E
:10023700E4CEFBE4CDFAE4CCF9A88222B800C1B938
:100247000059BA002DEC8BF084CFCECDFCE5F0CB76
:10025700F97818EF2FFFEE33FEED33FDEC33FCEBAF
:1002670033FB10D703994004EB99FB0FD8E5E4F96A
:10027700FA227818EF2FFFEE33FEED33FDEC33FC57
:10028700C933C910D7059BE99A4007EC9BFCE99A4B
:10029700F90FD8E0E4C9FAE4CCFB2275F010EF2F90
:1002A700FFEE33FEED33FDCC33CCC833C810D70790
:1002B7009BEC9AE899400AED9BFDEC9AFCE899F8CB
:0E02C7000FD5F0DAE4CDFBE4CCFAE4C8F9225E
:00000001FF
