:030000000200DC1F
:0C00DC00787FE4F6D8FD75812002012336
:10028C00C0F9A4B0999282F880908883C6A1868E1A
:0F027C00C100C101C102010900010A000108000F
:10021000D2AF7F807E2512023420B0FD1202513011
:1002200001FDE50990028C93F580AF0912026C2064
:0402300002E780FB66
:100234005389F0438902AB07AA06E4F9F87F407EAC
:0D024400427D0FFC1201CCEFF404F58C227A
:10025100AF8CC3E49FFF74019400C313EF13F40444
:0B026100F58AD2A9D28CC201C2002293
:10026C008F0A858C8AD2A9D28CC2B1C202D200224A
:03000B0002016887
:04016800C0E0C0D063
:10016C003000260508E508D39408500DE50A1392D3
:10017C00B1E50AC313F50A8042E5086409703CD264
:10018C00B1F508C28CD2028032E508700D20B006A1
:10019C00F50905088025C28C8021E508D394085008
:1001AC0010E509C313F50930B00343098005088035
:0B01BC000A750800C28C30B002D201AE
:0501C700D0D0D0E032B1
:1000E800020210E493A3F8E493A34003F68001F21C
:1000F80008DFF48029E493A3F85407240CC8C33319
:10010800C4540F4420C8834004F456800146F6DFE7
:10011800E4800B010204081020408090027CE47EF9
:10012800019360BCA3FF543F30E509541FFEE493DC
:10013800A360010ECF54C025E060A840B8E493A3A3
:10014800FAE493A3F8E493A3C8C582C8CAC583CACE
:10015800F0A3C8C582C8CAC583CADFE9DEE780BE86
:01028B000072
:1001CC00C2D5E830E70FB2D5E4C39BFBE49AFAE45E
:1001DC0099F9E498F8EC30E717B2D5120202120044
:1001EC004AE4C39BFBE49AFAE499F9E498F8800397
:1001FC0012004A30D50DE4C39FFFE49EFEE49DFD42
:04020C00E49CFC2250
:10000E0075F008758200EF2FFFEE33FECD33CDCCA9
:10001E0033CCC58233C5829BED9AEC99E58298402C
:10002E000CF582EE9BFEED9AFDEC99FC0FD5F0D609
:10003E00E4CEFBE4CDFAE4CCF9A88222B800C1B933
:10004E000059BA002DEC8BF084CFCECDFCE5F0CB71
:10005E00F97818EF2FFFEE33FEED33FDEC33FCEBAA
:10006E0033FB10D703994004EB99FB0FD8E5E4F965
:10007E00FA227818EF2FFFEE33FEED33FDEC33FC52
:10008E00C933C910D7059BE99A4007EC9BFCE99A46
:10009E00F90FD8E0E4C9FAE4CCFB2275F010EF2F8B
:1000AE00FFEE33FEED33FDCC33CCC833C810D7078B
:1000BE009BEC9AE899400AED9BFDEC9AFCE899F8C6
:0E00CE000FD5F0DAE4CDFBE4CCFAE4C8F92259
:00000001FF
