:030000000203E216
:0C03E200787FE4F6D8FD75814C020429F8
:1004E0004402D0104412D51F4424D052442E9D2FD4
:1004F0004443FF6D445C00004476F1174482D01001
:100500004492D51744A4D0A444AE9D3744C3FF6D94
:1005100044DC000044F6F10E4502D0104512D51718
:100520004524D052452E9D374543F6FE455C0000DC
:100530004576F10E4582D0124592D51745A4D0528A
:1005400045AE9D3745C3F6FE45DC000045F6F10E8D
:0905BF00010A0001080001090015
:10055000E4F543F5447548FF754904754AE0754B69
:100560001CFB7A00790B12046ED2AF758CFF758A72
:10057000FE5389F0438901D2A9D28CAF0A050AEF54
:1005800025E0240BF8E6FE08E6FF1205C9E4F54372
:10059000F544AE43AF44E4FCFD7B407A9CF9F8D3CC
:1005A000120368400A0544E54470E7054380E3C34D
:0F05B000E50A941C7480948040C1E4F50A80BC75
:0905C900AD07AC068C088D092277
:03000B000205D219
:0905D20085088C85098AB290327B
:06046E008B458A46894718
:10047400E4F54CF54CE54CC3954B505FAB48AA49A9
:10048400A94A75F004E54CA4F58285F08312037E35
:10049400E4FBFAF97840120106A804A905AA06AB00
:1004A40007E4FFFE7DFA7C4912020FA804A905AAFD
:1004B40006AB07E4FFFE7D807C471200111202ACFC
:1004C400AB45AA46A94775F002E54CA4F58285F030
:0B04D40083EE8FF012032D054C809A80
:0104DF0022FA
:10000E00020318E86480F8E933E83360110460F005
:10001E00ED33EC337009E8FCE9FDEAFEEBFF220458
:10002E0060DED3EB9FEA9EE99DE8C2E78CF0C2F753
:10003E0095F0400CE8CCF8E9CDF9EACEFAEBCFFB1F
:10004E001202E385D0F05804700320D5B3E8047093
:10005E00075002B2D502032292D5EC0460F7E4CC2D
:10006E00C0E0C398F8603B94186008400DD0E0FBE8
:10007E000202FAE4FBFAC9FC8028E830E406E4C97F
:10008E00FBE4CAFCE830E305E4C9CACBFCE854073C
:10009E006010F8C3E913F9EA13FAEB13FBEC13FC47
:1000AE00D8F130F52FC3E49CFCEF9BFFEE9AFEEDEA
:1000BE0099FDD0E0FBEF4E4D4C701222DB03020394
:1000CE001FEC2CFCEF33FFEE33FEED33FDED30E78E
:1000DE00EB0202FAEF2BFFEE3AFEED39FDD0E0FB1C
:1000EE0050130BBB0003020322ED13FDEE13FEEFC4
:0800FE0013FFEC13FC0202FAEF
:10010600EC4D6011E8497017ED33EC3304600DE4F3
:10011600FCFFFEFD22E933E8330470F802031812EF
:1001260002E358046009E4CC2481500628500902F1
:10013600032228400302031FC0E0EB4A7044B98043
:1001460006D0E0FB02030EEF4E701CBD8008EBFFED
:10015600EAFEE9FD80EBE98DF0A4FEE5F00201EF91
:10016600E9CDF9EAFEEBFFEF89F0A4FCE5F0CE89D4
:10017600F0A42EFFE435F0CD89F0A42DFEE435F091
:100186008067EF4E7005BD80D780C3EF8BF0A4ACBF
:10019600F0EE8BF0A42CFCE435F0F8EF8AF0A42CFA
:1001A600E5F038FCE433CB8DF0A42CFCE5F03BF80D
:1001B600EE8AF0A42CFCE5F038F8E433CF89F0A4FD
:1001C6002CFCE5F038CF3400CE89F0A42FFFE5F003
:1001D6003EFEE433C98DF0A42EFEE5F039CD8AF05B
:1001E600A42FFFE5F03EFEE43DFD33D0E0FB5007D3
:1001F6000BBB000F020322EC2CFCEF33FFEE33FEA9
:06020600ED33FD0202FAD7
:10020C00020322EC5D046005E85904700302031834
:10021C001202E3580460F6EC4860F2EC7004FDFE48
:10022C00FF22C860DB2481C85009C39860025006C5
:10023C0002031F9850CAF582E9294B4A7005AB821C
:10024C0002030E75F0007C1A7880C3EF9BEE9AEDDA
:10025C0099400DC3EF9BFFEE9AFEED99FDE842F03D
:10026C00DC23ACF0D0E0FFD0E0FED0E0FDAB822090
:10027C00E7101BEB60BAEC2CFCEF33FFEE33FEED1A
:10028C0033FD0202FAE803F830E705C0F075F00020
:10029C00EF2FFFEE33FEED33FD40B830E7C280AAFE
:1002AC00EDD2E7CD33EC3392D524814006E4FFFE4A
:1002BC00FDFC22FCE4CFCECDCC24E0501174FF80A9
:1002CC00EDC3CC13CCCD13CDCE13CECF13CF047046
:0702DC00F030D5DE02035AE9
:1002E300E9D2E7C933E833F892D5EDD2E7CD33EC61
:0702F30033FC5002B2D522DA
:1002FA00EC30E7100FBF000C0EBE00080DBD000465
:10030A000BEB6014A2D5EB13FCED92E7FD2274FF10
:10031A00FCFDFEFF22E480F8A2D574FF13FC7D8069
:03032A00E480EF7D
:1003EE00020550E493A3F8E493A34003F68001F2D0
:1003FE0008DFF48029E493A3F85407240CC8C33310
:10040E00C4540F4420C8834004F456800146F6DFDE
:10041E00E4800B01020408102040809005BFE47EAA
:10042E00019360BCA3FF543F30E509541FFEE493D3
:10043E00A360010ECF54C025E060A840B8E493A39A
:10044E00FAE493A3F8E493A3C8C582C8CAC583CAC5
:10045E00F0A3C8C582C8CAC583CADFE9DEE780BE7D
:0105C8000032
:10032D00F8BB0111E58229F582E5833AF583E8F002
:10033D00E5F0A3F0225009E92582C8F608A6F022BF
:0D034D00BBFE09E92582C8F2E5F008F222A6
:0E035A00C3E49FFFE49EFEE49DFDE49CFC22B4
:10036800EB9FF5F0EA9E42F0E99D42F0EC6480C80C
:0603780064809845F022AC
:10037E00BB010DE58229F582E5833AF5830203BAC6
:10038E005007E92582F80203AEBBFE07E92582F885
:10039E000203C6E58229F582E5833AF5830203D28C
:0C03AE00E6FC08E6FD08E6FE08E6FF227B
:0C03BA00E0FCA3E0FDA3E0FEA3E0FF22B6
:0C03C600E2FC08E2FD08E2FE08E2FF2273
:1003D200E493FC740193FD740293FE740393FF2271
:00000001FF
