:03000000020102F8
:0C010200787FE4F6D8FD758151020149B8
:100332007F98B0C6D9E9F5FCFFFCF5E9D9C6B098BB
:100342007F664E38251509020002091525384E66CA
:1003520000102030405060708090A0B0C0D0E0F01B
:10036200FFF0E0D0C0B0A09080706050403020100C
:1003720000081018202830384048505860687078BB
:1003820080889098A0A8B0B8C0C8D0D8E0E8F0F8AB
:1003F100010C00010E00010D00010F0001080001B8
:020401000900F0
:10057000D2AF7F017E001202D2750A03750B327F63
:090580000A12020D12018E80FB2B
:10047E00EF64267029AF08FEEF700A750801750A41
:10048E0003750B5222EF64014E700A750802750A4D
:0E049E0003750B7222E4F508750A03750B3224
:0104AC00222D
:100554008F1412000E7F901204D94002800A7F404B
:0C0564001204D9AF141204D91205992218
:10020D00E4FCFDFEFB7A08F9F81202708F138E12D2
:10021D008D118C10C3E49513F513E49512F512743A
:10022D00019511F511E49510F510E5132421F51341
:10023D00E43512F512E43511F511E43510F510AF72
:10024D0013AE12AD11FC78081202BF8F0D85130F7E
:10025D0053890F438910850D8D850F8BD2ABD2BB82
:02026D00D28E2F
:01026F00226C
:1002D200E4FCFDFB7A08F9F81202708F138E128D7E
:1002E200118C10C3E49513F513E49512F512740101
:1002F2009511F511E49510F510E513241CF513E49E
:100302003512F512E43511F511E43510F510AF137D
:10031200AE12AD11FC78081202BF8F0C85130E537A
:0F03220089F0438901850C8C850E8AD2A9D28C73
:0103310022A9
:03000B0002043DAF
:10043D00C0E0C0F0C083C082C0D075D000C000C085
:10044D0001C002C003C004C005C006C007850C8CE6
:10045D00850E8A12001ED007D006D005D004D00319
:10046D00D002D001D000D0D0D082D083D0F0D0E057
:01047D00324C
:03001B000203924B
:10039200C0E0C0F0C083C082C0D075D000C000C031
:0D03A20001C002C003C004C005C006C007B2
:1003AF00850D8D850F8BE50B2509F582E4350AF553
:1003BF0083E493FF1205540509C3E5099420748063
:0703CF009480400375090052
:1003D600D007D006D005D004D003D002D001D0007B
:0B03E600D0D0D082D083D0F0D0E03225
:07052E00D2A0120535D2A195
:100535007F01EFD394007480948040127E02EED345
:0E05450094007480948040031E80F31F80E4B5
:010553002285
:0D000E0012052EC2A0120535C2A102053553
:0F059900C2A1120535C2A0120530D2A00205354D
:0204D900AD076D
:1004DB007C80EC60145D7004C2A08002D2A0120577
:1004EB0030C2A1ECC313FC80E912052EA2A092002E
:0804FB00120535C2A1A200B3F5
:0105030022D5
:10050400D2A07C80EC601B120535D2A1EC20A005A2
:10051400F4520580024205120535C2A1ECC313FC56
:0905240080E212052EC2A1AF0510
:01052D0022AB
:1004AD00D2A07C80EC601B120535D2A1EC20A005FA
:1004BD00F4520580024205120535C2A1ECC313FCAE
:0B04CD0080E2C2A0120530C2A1AF0502
:0104D8002201
:10058900313233263435362837383925301B0D2793
:100403001042010101010101010101010101010189
:10041300010110210101010101010101010101019A
:10042300010101010131001032FFFFFFFFFFFFFF58
:09043300FFFFFFFFFFFFFFFFFFC9
:10018E00E4F510C3E5109404748094805070E4F587
:10019E0011C3E511940474809480505EE51025E03F
:1001AE0025E024422511F8E6FFE51025E025E024A0
:1001BE00212511F8E6FE6F603DEE6020E51025E08A
:1001CE0025E02489F582E43405F583E5822511F5D1
:1001DE0082E43583F583E493FF12047EE51025E077
:1001EE0025E024422511F8E6FFE51025E025E02460
:0E01FE00212511F8A6070511809705108085B0
:01020C0022CF
:10001E00E53125E025E02432F8E625E0FFA2A4E450
:10002E00334FFFE53125E025E02432F8A607E53110
:10003E0025E025E02433F8E625E0FFA2A5E4334FC2
:10004E00FFE53125E025E02433F8A607E53125E06C
:10005E0025E02434F8E625E0FFA2A6E4334FFFE5C1
:10006E003125E025E02434F8A607E53125E025E02A
:10007E002435F8E625E0FFA2A7E4334FFFE531254E
:10008E00E025E02435F8A607E4FFEFC3940474805E
:10009E0094805035E53125E025E024322FF8E654E2
:1000AE000FFD7C00700EE53125E025E024422FF88F
:1000BE00E4F68012ED640F4C700CE53125E025E07E
:1000CE0024422FF876010F80C1E5311460101460C0
:1000DE001314601624037016D2A0C2A18010D2A1F0
:1000EE00C2A2800AD2A2C2A38004D2A3C2A00531AA
:0300FE0053310378
:0101010022DB
:10010E00020570E493A3F8E493A34003F68001F292
:10011E0008DFF48029E493A3F85407240CC8C333F2
:10012E00C4540F4420C8834004F456800146F6DFC1
:10013E00E4800B01020408102040809003F1E47E5D
:10014E00019360BCA3FF543F30E509541FFEE493B6
:10015E00A360010ECF54C025E060A840B8E493A37D
:10016E00FAE493A3F8E493A3C8C582C8CAC583CAA8
:10017E00F0A3C8C582C8CAC583CADFE9DEE780BE60
:01043C0000BF
:10027000E88FF0A4CC8BF0A42CFCE98EF0A42CFC2D
:100280008AF0EDA42CFCEA8EF0A4CDA8F08BF0A4AB
:100290002DCC3825F0FDE98FF0A42CCD35F0FCEB0A
:1002A0008EF0A4FEA9F0EB8FF0A4CFC5F02ECD39CF
:0F02B000FEE43CFCEAA42DCE35F0FDE43CFC223C
:1002BF00E8600FECC313FCED13FDEE13FEEF13FF1D
:0302CF00D8F12241
:00000001FF
