:030000000201F703
:0C01F700787FE4F6D8FD75813802023EE6
:100304003F065B4F666D7D077F6F777C395E797141
:10031400C0F9A4B0999282F880908883C6A1868E91
:1003240001010101010101010101010101010101B9
:100334001019010101010101010101010101010182
:1003440001010108001009FFFFFFFFFFFFFFFFFF8E
:07035400FFFFFFFFFFFFFFA9
:1002830078297C007D007BFF7A0379247E007F1030
:100293001200DED2AF758901758CFC758A67D2A90D
:1002A300D28CE4FFE4FEEF25E025E024192EF8E6E6
:1002B300FDEF25E025E024292EF8E66D6039742949
:1002C3004400601D75F004EFA42EF582E435F0F5CB
:1002D30083E5822414F582E5833403F583E493F5FF
:1002E30080EF25E025E024192EF8E6FDEF25E02533
:1002F300E024292EF8A6050EBE04AB0FBF04A5808B
:01030300A158
:03000B00020104EB
:0D010400C0E0C0D075D000C000C006C0072C
:10011100758CFC758A67E50825E025E02409F8E679
:1001210025E0FFA2A4E4334FFFE50825E025E02404
:1001310009F8A607E50825E025E0240AF8E625E008
:10014100FFA2A5E4334FFFE50825E025E0240AF8E6
:10015100A607E50825E025E0240BF8E625E0FFA247
:10016100A6E4334FFFE50825E025E0240BF8A607B8
:10017100E50825E025E0240CF8E625E0FFA2A7E448
:10018100334FFFE50825E025E0240CF8A607E4FF3E
:10019100E50825E025E024092FF8E6540FFE700E4E
:1001A100E50825E025E024192FF87600800FBE0F21
:1001B1000CE50825E025E024192FF876010FBF048E
:1001C100CFE5081460101460131460162403701630
:1001D100D2A0C2A18010D2A1C2A2800AD2A2C2A37F
:0B01E1008004D2A3C2A005085308034D
:0B01EC00D007D006D000D0D0D0E03209
:10020300020283E493A3F8E493A34003F68001F28C
:1002130008DFF48029E493A3F85407240CC8C333FC
:10022300C4540F4420C8834004F456800146F6DFCB
:10023300E4800B0102040810204080900334E47E24
:10024300019360BCA3FF543F30E509541FFEE493C0
:10025300A360010ECF54C025E060A840B8E493A387
:10026300FAE493A3F8E493A3C8C582C8CAC583CAB2
:10027300F0A3C8C582C8CAC583CADFE9DEE780BE6A
:01035B0000A1
:10000E00E709F608DFFA8046E709F208DFFA803ED4
:10001E0088828C83E709F0A3DFFA8032E309F608C1
:10002E00DFFA8078E309F208DFFA807088828C8329
:10003E00E309F0A3DFFA806489828A83E0A3F608DD
:10004E00DFFA805889828A83E0A3F208DFFA804CB7
:10005E0080D280FA80C680D4806980F2803380108E
:10006E0080A680EA809A80A880DA80E280CA8033F7
:10007E0089828A83ECFAE493A3C8C582C8CCC5836F
:10008E00CCF0A3C8C582C8CCC583CCDFE9DEE7803F
:10009E000D89828A83E493A3F608DFF9ECFAA9F0BE
:1000AE00EDFB2289828A83ECFAE0A3C8C582C8CC14
:1000BE00C583CCF0A3C8C582C8CCC583CCDFEADE2D
:1000CE00E880DB89828A83E493A3F208DFF980CC8F
:1000DE0088F0EF60010E4E60C388F0ED2402B40488
:1000EE000050B9F582EB2402B4040050AF2323452F
:0600FE00822390005E73F6
:00000001FF
