:030000000204C433
:0C04C400787FE4F6D8FD75817102050B0D
:08000300201906051155000348
:100B32007E01EE60135F6004D2938002C293D2B64C
:0A0B4200C2B6EE25E0FE80EAD29371
:010B4C002286
:100B6700E4FF7E01EE600F3093024207D2B6C2B6B1
:060B7700EE25E0FE80EE19
:010B7D002255
:10000E00D2B5EF25E04480FF120B32AF05120B3252
:03001E00C2B52246
:100B7E00D2B5EF25E04481FF120B32120B67C2B5DE
:010B8E002244
:060A6E008B6C8A6D896E9D
:100A7400D2B57FBE120B32E4FDEDC39408748094AA
:100A8400805015AB6CAA6DA96E8D8275830012011E
:0A0A940035FF120B320D80E1C2B5F0
:010A9E002235
:060A9F008B6F8A70897163
:100AA500D2B57FBF120B32E4FDEDC3940874809478
:100AB500805015120B67AB6FAA70A9718D82758373
:0A0AC50000EF1201740D80E1C2B5CC
:010ACF002204
:060901008B648A65896623
:100907007B007A007967120A9FE4256DFFE43420A3
:10091700AB64AA65A9668FF01201C1AB64AA65A989
:1009270066900002E56B120174900003E56A1201FC
:1009370074900004E569120174900005E5681201DE
:1009470074900006E567120174900007E56C0201D8
:01095700742B
:1009EF00E4F56B120196F56A900007120135F5696F
:1009FF00900002120135F568900003120135F5677A
:100A0F00900004120135F566900005120135F56569
:100A1F00900006120135F5647B007A007964020AB2
:010A2F006E58
:100B1300C2B5C2B6E4FF120B7EEF54806010E4FD51
:0E0B23007F0712000E7BFF7A0079031209EFA4
:010B310022A1
:100AF3003F065B4F666D7D077F6F777C395E79714B
:100B0300C0F9A4B0999282F880908883C6A1868E9A
:0D089A000809000000000000000001080037
:10075200E4F580E508B40800504D900763F82828B6
:100762007302077B02077F02078302078702078B58
:1007720002079302079B0207A3D292800ED29280B5
:1007820012D2928016D292801AC292D291D29080C4
:1007920016C292D291C290800EC292C291D2908021
:1007A20006C292C291C29074092508F8E6F580C388
:1007B200E5089407748094805003050822E4F50844
:0107C2002214
:100B4D00ED900AF393FE74092FF8A606EF54017089
:0A0B5D000874092FF8E64480F62220
:100A300068656C6C6F20776F726C643A3132333456
:100A400035363738390073657474696E67206F7294
:100A500020636F6E6669726D00016E3600000000E3
:0E0A6000000000000000000000000000000088
:1008A700C180C18101150001160001140001180063
:0A08B70001170001110002120000F9
:100550007552AA78537C007D007BFF7A0A795D7E14
:10056000007F091200F6785C7C007D007BFF7A0A30
:1005700079667E007F081200F6D2AF7F017E0012FE
:1005800005D47F807E25120958120B1312065830AD
:100590000020E514701CC200FB7A00795C1209018E
:1005A000E5626552600C7B007A00795C1206D785A3
:1005B00062523001D7C201756700756800756953D2
:1005C0007B007A00795C1204047B007A0079531274
:0405D0000AD080B815
:0405D4008E648F653D
:1005D800E47B0CFAF9F8900A5912031012026BE442
:1005E8007BE87A03F9F812026BA804A905AA06ABFE
:1005F80007AE64AF65E4FCFD1201E08F698E688D7B
:10060800678C66C3E49569F569E49568F5687401D3
:100618009567F567E49566F566E569240CF569E480
:100628003568F568E43567F567E43566F566AF69FA
:10063800AE68AD67FC78081202FD8F158569165300
:0F06480089F043890185158C85168AD2A9D28C39
:010657002280
:03000B000207C326
:1007C300C0E0C0F0C083C082C0D075D000C000C0FC
:0D07D30001C002C003C004C005C006C0077D
:1007E00085158C85168A1207521203200511C3E560
:1007F0001194C8748094804005751100D2000513CF
:10080000E51370020512C394E8E5129403400875DD
:070810001200751300D20174
:10081700D007D006D005D004D003D002D001D00035
:0B082700D0D0D082D083D0F0D0E032DF
:1006D7008B648A658966900006120135540FFD7F89
:1006E70002120B4DAB64AA65A9669000061201358C
:1006F700C45407FD7F03120B4DAB64AA65A966902E
:100707000005120135540FFD7F04120B4DAB64AA8F
:1007170065A966900005120135C45407FD7F0512CF
:100727000B4DAB64AA65A966900004120135540FFE
:10073700FD7F06120B4DAB64AA65A96690000412F3
:0B0747000135C45403FD7F07020B4D79
:100404008B648A658966120196E5F0AB67AA68A9D0
:1004140069120162AB64AA65A966120196AB67AA68
:1004240068A969900001120174AB64AA65A9669079
:100434000002120135AB67AA68A969900002120193
:1004440074AB64AA65A966900003120135AB67AA70
:1004540068A969900003120174AB64AA65A9669047
:100464000004120135AB67AA68A96990000412015F
:1004740074AB64AA65A966900005120135AB67AA3E
:1004840068A969900005120174AB64AA65A9669015
:100494000006120135AB67AA68A96990000612012B
:1004A40074AB64AA65A966900007120135AB67AA0C
:1004B40068A969900007120174900008E4020174AD
:100832008F66E566C394304015E566D39439500E51
:10084200E4FDFF120B4D7BFF7A0A7930803AE566B0
:10085200642670047D01803BE566642870047D0295
:100862008031E566642570047D038027E566642790
:1008720070047D04801DE566640D700F7D05FF1216
:100882000B4D7BFF7A0A7946020AD0E566641B703B
:08089200067D0EFF120B4D2242
:100B8F00313233263435362837383925301B0D2787
:1008C10010420101010101010101010101010101C7
:1008D10001011021010101010101010101010101D8
:1008E100010101010131001032FFFFFFFFFFFFFF96
:0908F100FFFFFFFFFFFFFFFFFF07
:10065800E4F564C3E5649404748094805070E4F510
:1006680065C3E565940474809480505EE56425E074
:1006780025E024422565F8E6FFE56425E025E02429
:10068800212565F8E6FE6F603DEE6020E56425E013
:1006980025E0248FF582E4340BF583E5822565F5A2
:1006A80082E43583F583E493FF120832E56425E09C
:1006B80025E024422565F8E6FFE56425E025E024E9
:0E06C800212565F8A6070565809705648085E5
:0106D6002201
:10032000E53125E025E02432F8E625E0FFA2A4E44B
:10033000334FFFE53125E025E02432F8A607E5310B
:1003400025E025E02433F8E625E0FFA2A5E4334FBD
:10035000FFE53125E025E02433F8A607E53125E067
:1003600025E02434F8E625E0FFA2A6E4334FFFE5BC
:100370003125E025E02434F8A607E53125E025E025
:100380002435F8E625E0FFA2A7E4334FFFE5312549
:10039000E025E02435F8A607E4FFEFC39404748059
:1003A00094805035E53125E025E024322FF8E654DD
:1003B0000FFD7C00700EE53125E025E024422FF88A
:1003C000E4F68012ED640F4C700CE53125E025E079
:1003D00024422FF876010F80C1E5311460101460BB
:1003E0001314601624037016D2A0C2A18010D2A1EB
:1003F000C2A2800AD2A2C2A38004D2A3C2A00531A5
:0304000053310372
:0104030022D6
:0608FA00011900011A00C3
:100958008E648F6575985053890F4389204387802B
:10096800E47B0CFAF9F8900A5912031012026BE4AE
:100978007B10FAF9F812026BC006C007AE64AF65C7
:10098800AB07AA06E4F9F8D007D00612026BEFF419
:0D09980004F58D858D8BC2ABD2ACD28E22C2
:030023000209A52A
:1009A500C0E0C0F0C083C082C0D075D000C000C018
:1009B50001C002C003C004C005C006C00730980FBF
:1009C500C298859918751701AD18E4FF120B4DD023
:1009D50007D006D005D004D003D002D001D000D076
:0A09E500D0D082D083D0F0D0E032F1
:100AD0008B678A688969AB67AA68A96912011CFFDC
:100AE0006010120B9F74012569F569E43568F5689B
:030AF00080E4227D
:080B9F008F993099FDC29922E3
:1004D000020550E493A3F8E493A34003F68001F2ED
:1004E00008DFF48029E493A3F85407240CC8C3332D
:1004F000C4540F4420C8834004F456800146F6DFFC
:10050000E4800B010204081020408090089AE47EE9
:10051000019360BCA3FF543F30E509541FFEE493F0
:10052000A360010ECF54C025E060A840B8E493A3B7
:10053000FAE493A3F8E493A3C8C582C8CAC583CAE2
:10054000F0A3C8C582C8CAC583CADFE9DEE780BE9A
:0109000000F6
:10002600E709F608DFFA8046E709F208DFFA803EBC
:1000360088828C83E709F0A3DFFA8032E309F608A9
:10004600DFFA8078E309F208DFFA807088828C8311
:10005600E309F0A3DFFA806489828A83E0A3F608C5
:10006600DFFA805889828A83E0A3F208DFFA804C9F
:1000760080D280FA80C680D4806980F28033801076
:1000860080A680EA809A80A880DA80E280CA8033DF
:1000960089828A83ECFAE493A3C8C582C8CCC58357
:1000A600CCF0A3C8C582C8CCC583CCDFE9DEE78027
:1000B6000D89828A83E493A3F608DFF9ECFAA9F0A6
:1000C600EDFB2289828A83ECFAE0A3C8C582C8CCFC
:1000D600C583CCF0A3C8C582C8CCC583CCDFEADE15
:1000E600E880DB89828A83E493A3F208DFF980CC77
:1000F60088F0EF60010E4E60C388F0ED2402B40470
:100106000050B9F582EB2402B4040050AF23234516
:06011600822390007673C5
:10011C00BB010689828A83E0225002E722BBFE02E1
:09012C00E32289828A83E4932214
:10013500BB010CE58229F582E5833AF583E022507F
:1001450006E92582F8E622BBFE06E92582F8E222C9
:0D015500E58229F582E5833AF583E49322E3
:10016200BB010689828A83F0225002F722BBFE017C
:02017200F32276
:10017400F8BB010DE58229F582E5833AF583E8F0C1
:10018400225006E92582C8F622BBFE05E92582C86D
:02019400F22255
:10019600BB010A89828A83E0F5F0A3E02250068734
:1001A600F009E71922BBFE07E3F5F009E3192289F6
:0B01B600828A83E493F5F07401932229
:1001C100BB010A89828A83F0E5F0A3F0225006F789
:0F01D10009A7F01922BBFE06F3E5F009F3192286
:1001E000E88FF0A4CC8BF0A42CFCE98EF0A42CFCBE
:1001F0008AF0EDA42CFCEA8EF0A4CDA8F08BF0A43C
:100200002DCC3825F0FDE98FF0A42CCD35F0FCEB9A
:100210008EF0A4FEA9F0EB8FF0A4CFC5F02ECD395F
:0F022000FEE43CFCEAA42DCE35F0FDE43CFC22CC
:10022F0075F008758200EF2FFFEE33FECD33CDCC86
:10023F0033CCC58233C5829BED9AEC99E582984009
:10024F000CF582EE9BFEED9AFDEC99FC0FD5F0D6E6
:10025F00E4CEFBE4CDFAE4CCF9A88222B800C1B910
:10026F000059BA002DEC8BF084CFCECDFCE5F0CB4E
:10027F00F97818EF2FFFEE33FEED33FDEC33FCEB87
:10028F0033FB10D703994004EB99FB0FD8E5E4F942
:10029F00FA227818EF2FFFEE33FEED33FDEC33FC2F
:1002AF00C933C910D7059BE99A4007EC9BFCE99A23
:1002BF00F90FD8E0E4C9FAE4CCFB2275F010EF2F68
:1002CF00FFEE33FEED33FDCC33CCC833C810D70768
:1002DF009BEC9AE899400AED9BFDEC9AFCE899F8A3
:0E02EF000FD5F0DAE4CDFBE4CCFAE4C8F92236
:1002FD00E8600FECC313FCED13FDEE13FEEF13FFDF
:03030D00D8F12202
:10031000E493FC740193FD740293FE740393FF2233
:00000001FF
