:030000000205AC4A
:0C05AC00787FE4F6D8FD75817C0205F331
:0800030020190605221100037B
:100C9A007E01EE60135F6004D2938002C293D2B6E3
:0A0CAA00C2B6EE25E0FE80EAD29308
:010CB400221D
:100CCF00E4FF7E01EE600F3093024207D2B6C2B648
:060CDF00EE25E0FE80EEB0
:010CE50022EC
:100D1200D2B5EF25E04480FF120C9AAF05120C9A6F
:030D2200C2B52235
:100D6D00D2B5EF25E04481FF120C9A120CCFC2B51B
:010D7D002253
:060B70008B688A69896AA6
:100B7600D2B57FBE120C9AE4FDEDC394087480943E
:100B8600805015AB68AA69A96A8D82758300120127
:0A0B960035FF120C9A0D80E1C2B584
:010BA0002232
:060BA1008B688A69896A75
:100BA700D2B57FBF120C9AE4FDEDC394087480940C
:100BB700805015120CCFAB68AA69A96A8D8275831C
:0A0BC70000EF1201740D80E1C2B5C9
:010BD1002201
:0609B7008B5D8A5E895F82
:1009BD007B007A007960120BA1E42566FFE43420F8
:1009CD00AB5DAA5EA95F8FF0120216AB5DAA5EA9A0
:1009DD005F900002E564120174900003E56312015B
:1009ED0074900004E562120174900005E561120136
:1009FD0074900006E560120174900007E565020130
:010A0D007474
:100AF700E4F5671201EBF566900007120135F5651D
:100B0700900002120135F564900003120135F56378
:100B1700900004120135F562900005120135F56168
:100B2700900006120135F5607B007A007960020BB0
:010B3700704D
:100C5F00C2B5C2B6E4FF120D6DEF54806010E4FD13
:0E0C6F007F07120D127BFF7A007903120AF73D
:010C7D002254
:100C3D003F065B4F666D7D077F6F777C395E7971FF
:100C4D004900C0F9A4B0999282F880908883C6A11A
:020C5D00868E81
:0D089800081700000000000000000116001D
:1007B800E4F580E516B40800504D9007C9F82828DC
:1007C800730207E10207E50207E90207ED0207F1F4
:1007D8000207F9020801020809D292800ED292801B
:1007E80012D2928016D292801AC292D291D290805E
:1007F80016C292D291C290800EC292C291D29080BB
:1008080006C292C291C29074172516F8E6F580C305
:10081800E5169407748094805003051622E4F516B3
:0108280022AD
:100BD200ED900C3D93FE74172FF8A606EF540170AA
:100BE20012EFD3940074809480400874172FF8E6B3
:040BF2004480F62223
:0D0D9D00016E3600000000000000000000A4
:1008A500C181C182080D0000000000000000010B9D
:1008B50000010C0001150001080002090000C1003B
:100512007552AA78537C007D007BFF7A0D79A17E0B
:10052200007F091200F6E4F55CD2AF120DBB120C8B
:100532005F7F017E001206387F807E25120A6512D7
:1005420006BEE57C600BE4F57C120BF68F5C120AAA
:100552000EE515704530011CC201FB7A00790D12BF
:1005620009B7E5136552600C7B007A00790D12071A
:100572003D8513523002C8C2027560007561007574
:1005820062537B007A00790D1204597B007A00795C
:10059200537D087C00120B3880A53001A2C2017B7A
:0A05A200007A00790D120C7E80959E
:040638008E5D8F5EE6
:10063C00E47B0CFAF9F8900D9D1203651202C0E4EC
:10064C007BE87A03F9F81202C0A804A905AA06AB44
:10065C0007AE5DAF5EE4FCFD1202358F628E618DDC
:10066C00608C5FC3E49562F562E49561F561740199
:10067C009560F560E4955FF55FE562240CF562E446
:10068C003561F561E43560F560E4355FF55FAF62C7
:10069C00AE61AD60FC78081203528F0B85620C536F
:1006AC0089F0438901850B8C850C8AD2A9D28CD216
:0106BC00B984
:0106BD00221A
:03000B00020829BF
:10082900C0E0C0F0C083C082C0D075D000C000C095
:0D08390001C002C003C004C005C006C00716
:10084600850B8C850C8A1207B81203750508C3E55B
:100856000894C8748094804005750800D201050A82
:10086600E50A70020509C394E8E509940340087592
:070876000900750A00D2021F
:10087D00D007D006D005D004D003D002D001D000CF
:0B088D00D0D0D082D083D0F0D0E03279
:10073D008B608A618962900006120135540FFD7F2E
:10074D0002120BD2AB60AA61A962900006120135AC
:10075D00C45407FD7F03120BD2AB60AA61A962904E
:10076D000005120135540FFD7F04120BD2AB60AAA8
:10077D0061A962900005120135C45407FD7F051271
:10078D000BD2AB60AA61A962900004120135540F1F
:10079D00FD7F06120BD2AB60AA61A9629000041214
:0B07AD000135C45403FD7F07020BD28E
:060C7E008B5D8A5E895FB8
:100C8400B2002000077D11AF15020BD2AB5DAA5E46
:050C9400A95F12073DFD
:010C99002238
:100459008B5D8A5E895F1201EBE5F0AB60AA61A949
:1004690062120162AB5DAA5EA95F1201EBAB60AAE1
:1004790061A962900001120174AB5DAA5EA95F9047
:100489000002120135AB60AA61A962900002120153
:1004990074AB5DAA5EA95F900003120135AB60AA37
:1004A90061A962900003120174AB5DAA5EA95F9015
:1004B9000004120135AB60AA61A96290000412011F
:1004C90074AB5DAA5EA95F900005120135AB60AA05
:1004D90061A962900005120174AB5DAA5EA95F90E3
:1004E9000006120135AB60AA61A9629000061201EB
:1004F90074AB5DAA5EA95F900007120135AB60AAD3
:0905090061A9629000070201746F
:100A0E008F5FE55FC39430400DE55FD39439500698
:100A1E00E4FDFF020BD2E55F64267003020905E5D3
:100A2E005F6428700302095EE55F64257003020DA2
:100A3E0025E55F64277003020D37E55F640D700BCB
:100A4E00E5157003020DC1D2038008E55F641B70CB
:070A5E0005C203120D8E22F8
:040DC100751507227B
:0F0D8E00E4F515300308FB7A00790D120AF722FD
:100D2500C3E5159407748094804004751502220567
:020D3500152285
:100D3700D3E5159402748094805004751507221525
:020D4700152273
:10000E00EF54F0C3949074809480500574102FFFB9
:05001E002253070F2230
:100D4900EF540FC394097480948050020F22530703
:020D5900F02286
:100CFD00EF54F0D3940074809480400574F02FFF6E
:050D0D002243079022C3
:100D5B00EF540FD394007480948040021F224307FA
:020D6B00F7226D
:10090500AD15E4FF120BD2E51524FE603C146030F2
:1009150014602414601814600C147034AF111200A4
:100925000E8F11802BAF11120D498F118022AF123E
:1009350012000E8F128019AF12120D498F128010FE
:10094500AF1312000E8F138007AF13120D498F13CB
:090955007B007A00790D02073DD8
:10095E00AD15E4FF120BD2E51524FE603C14603099
:10096E0014602414601814600C147034AF11120C3F
:10097E00FD8F11802BAF11120D5B8F118022AF12E4
:10098E00120CFD8F128019AF12120D5B8F12801098
:10099E00AF13120CFD8F138007AF13120D5B8F1365
:0909AE007B007A00790D02073D7F
:100D7E00313233263435362837383925301B0D2796
:1008C50010420101010101010101010101010101C3
:1008D50001011021010101010101010101010101D4
:1008E500010101010131001032FFFFFFFFFFFFFF92
:0908F500FFFFFFFFFFFFFFFFFF03
:1006BE00E4F55DC3E55D9404748094805070E4F5B8
:1006CE005EC3E55E940474809480505EE55D25E023
:1006DE0025E02442255EF8E6FFE55D25E025E024D1
:1006EE0021255EF8E6FE6F603DEE6020E55D25E0BB
:1006FE0025E0247EF582E4340DF583E582255EF552
:10070E0082E43583F583E493FF120A0EE55D25E05E
:10071E0025E02442255EF8E6FFE55D25E025E02490
:0E072E0021255EF8A607055E8097055D808593
:01073C00229A
:10037500E53125E025E02432F8E625E0FFA2A4E4F6
:10038500334FFFE53125E025E02432F8A607E531B6
:1003950025E025E02433F8E625E0FFA2A5E4334F68
:1003A500FFE53125E025E02433F8A607E53125E012
:1003B50025E02434F8E625E0FFA2A6E4334FFFE567
:1003C5003125E025E02434F8A607E53125E025E0D0
:1003D5002435F8E625E0FFA2A7E4334FFFE53125F4
:1003E500E025E02435F8A607E4FFEFC39404748004
:1003F50094805035E53125E025E024322FF8E65488
:100405000FFD7C00700EE53125E025E024422FF834
:10041500E4F68012ED640F4C700CE53125E025E023
:1004250024422FF876010F80C1E531146010146065
:100435001314601624037016D2A0C2A18010D2A195
:10044500C2A2800AD2A2C2A38004D2A3C2A005314F
:030455005331031D
:010458002281
:0608FE00017A00017B00FD
:100A65008E5D8F5E75985053890F4389204387802B
:100A7500E47B0CFAF9F8900D9D1203651202C0E4AF
:100A85007B10FAF9F81202C0C006C007AE5DAF5E72
:100A9500AB07AA06E4F9F8D007D0061202C0EFF4B6
:0D0AA50004F58D858D8BC2ABD2ACD28E22B4
:03002300020AB21C
:100AB200C0E0C0F0C083C082C0D075D000C000C00A
:100AC20001C002C003C004C005C006C00730980AB6
:100AD200C298AF99120CB5757C01D007D006D0052B
:100AE200D004D003D002D001D000D0D0D082D083A5
:050AF200D0F0D0E0325D
:100B38008B5D8A5E895F8C608D61D3E5619400E589
:100B48006094004022AB5DAA5EA95F12011CFF12EF
:100B58000DB37401255FF55FE4355EF55EE561155B
:080B68006170D7156080D322F3
:100C1A008B778A788979AB77AA78A97912011CFF30
:100C2A006010120DB374012579F579E43578F578F9
:030C3A0080E42231
:080DB3008F993099FDC29922CD
:060DBB00E4F575F5762257
:090DAA00E575B57602D322C322DF
:100CE600E5762401FFE433FE7C007D0A120196EDD1
:070CF600B57502D322C322F1
:100CB500AB07120CE64012E576640A7002F576AFD2
:0A0CC500760576746B2FF8A6032263
:100BF600E4FF120DAA50037FFF22E575640A700216
:100C0600F575746B2575F8E6FFAE750575746B2E74
:030C1600F8E4F609
:010C190022B8
:1005B800020512E493A3F8E493A34003F68001F242
:1005C80008DFF48029E493A3F85407240CC8C33344
:1005D800C4540F4420C8834004F456800146F6DF13
:1005E800E4800B0102040810204080900898E47E03
:1005F800019360BCA3FF543F30E509541FFEE49308
:10060800A360010ECF54C025E060A840B8E493A3CE
:10061800FAE493A3F8E493A3C8C582C8CAC583CAF9
:10062800F0A3C8C582C8CAC583CADFE9DEE780BEB1
:0109040000F2
:10002600E709F608DFFA8046E709F208DFFA803EBC
:1000360088828C83E709F0A3DFFA8032E309F608A9
:10004600DFFA8078E309F208DFFA807088828C8311
:10005600E309F0A3DFFA806489828A83E0A3F608C5
:10006600DFFA805889828A83E0A3F208DFFA804C9F
:1000760080D280FA80C680D4806980F28033801076
:1000860080A680EA809A80A880DA80E280CA8033DF
:1000960089828A83ECFAE493A3C8C582C8CCC58357
:1000A600CCF0A3C8C582C8CCC583CCDFE9DEE78027
:1000B6000D89828A83E493A3F608DFF9ECFAA9F0A6
:1000C600EDFB2289828A83ECFAE0A3C8C582C8CCFC
:1000D600C583CCF0A3C8C582C8CCC583CCDFEADE15
:1000E600E880DB89828A83E493A3F208DFF980CC77
:1000F60088F0EF60010E4E60C388F0ED2402B40470
:100106000050B9F582EB2402B4040050AF23234516
:06011600822390007673C5
:10011C00BB010689828A83E0225002E722BBFE02E1
:09012C00E32289828A83E4932214
:10013500BB010CE58229F582E5833AF583E022507F
:1001450006E92582F8E622BBFE06E92582F8E222C9
:0D015500E58229F582E5833AF583E49322E3
:10016200BB010689828A83F0225002F722BBFE017C
:02017200F32276
:10017400F8BB010DE58229F582E5833AF583E8F0C1
:10018400225006E92582C8F622BBFE05E92582C86D
:02019400F22255
:10019600BC000BBE0029EF8DF084FFADF022E4CC4D
:1001A600F875F008EF2FFFEE33FEEC33FCEE9DEC16
:1001B600984005FCEE9DFE0FD5F0E9E4CEFD22ED5C
:1001C600F8F5F0EE8420D21CFEADF075F008EF2FA6
:1001D600FFED33FD4007985006D5F0F222C398FD97
:0501E6000FD5F0EA2234
:1001EB00BB010A89828A83E0F5F0A3E022500687DF
:1001FB00F009E71922BBFE07E3F5F009E3192289A1
:0B020B00828A83E493F5F074019322D3
:10021600BB010A89828A83F0E5F0A3F0225006F733
:0F02260009A7F01922BBFE06F3E5F009F3192230
:10023500E88FF0A4CC8BF0A42CFCE98EF0A42CFC68
:100245008AF0EDA42CFCEA8EF0A4CDA8F08BF0A4E6
:100255002DCC3825F0FDE98FF0A42CCD35F0FCEB45
:100265008EF0A4FEA9F0EB8FF0A4CFC5F02ECD390A
:0F027500FEE43CFCEAA42DCE35F0FDE43CFC2277
:1002840075F008758200EF2FFFEE33FECD33CDCC31
:1002940033CCC58233C5829BED9AEC99E5829840B4
:1002A4000CF582EE9BFEED9AFDEC99FC0FD5F0D691
:1002B400E4CEFBE4CDFAE4CCF9A88222B800C1B9BB
:1002C4000059BA002DEC8BF084CFCECDFCE5F0CBF9
:1002D400F97818EF2FFFEE33FEED33FDEC33FCEB32
:1002E40033FB10D703994004EB99FB0FD8E5E4F9ED
:1002F400FA227818EF2FFFEE33FEED33FDEC33FCDA
:10030400C933C910D7059BE99A4007EC9BFCE99ACD
:10031400F90FD8E0E4C9FAE4CCFB2275F010EF2F12
:10032400FFEE33FEED33FDCC33CCC833C810D70712
:100334009BEC9AE899400AED9BFDEC9AFCE899F84D
:0E0344000FD5F0DAE4CDFBE4CCFAE4C8F922E0
:10035200E8600FECC313FCED13FDEE13FEEF13FF89
:03036200D8F122AD
:10036500E493FC740193FD740293FE740393FF22DE
:00000001FF
