:030000000205AC4A
:0C05AC00787FE4F6D8FD75817C0205F331
:0800030020190605221100037B
:100C9D007E01EE60135F6004D2938002C293D2B6E0
:0A0CAD00C2B6EE25E0FE80EAD29305
:010CB700221A
:100CD200E4FF7E01EE600F3093024207D2B6C2B645
:060CE200EE25E0FE80EEAD
:010CE80022E9
:100D1500D2B5EF25E04480FF120C9DAF05120C9D66
:030D2500C2B52232
:100D7000D2B5EF25E04481FF120C9D120CD2C2B512
:010D80002250
:060B73008B688A69896AA3
:100B7900D2B57FBE120C9DE4FDEDC3940874809438
:100B8900805015AB68AA69A96A8D82758300120124
:0A0B990035FF120C9D0D80E1C2B57E
:010BA300222F
:060BA4008B688A69896A72
:100BAA00D2B57FBF120C9DE4FDEDC3940874809406
:100BBA00805015120CD2AB68AA69A96A8D82758316
:0A0BCA0000EF1201740D80E1C2B5C6
:010BD40022FE
:060A11008B5D8A5E895F27
:100A17007B007A007960120BA4E42566FFE434209A
:100A2700AB5DAA5EA95F8FF0120216AB5DAA5EA945
:100A37005F900002E564120174900003E563120100
:100A470074900004E562120174900005E5611201DB
:100A570074900006E560120174900007E5650201D5
:010A6700741A
:100AFA00E4F5671201EBF566900007120135F5651A
:100B0A00900002120135F564900003120135F56375
:100B1A00900004120135F562900005120135F56165
:100B2A00900006120135F5607B007A007960020BAD
:010B3A007347
:100C6200C2B5C2B6E4FF120D70EF54806010E4FD0D
:0E0C72007F07120D157BFF7A007903120AFA34
:010C80002251
:100C40003F065B4F666D7D077F6F777C395E7971FC
:100C50004900C0F9A4B0999282F880908883C6A117
:020C6000868E7E
:0D089600081700000000000000000116001F
:1007B600E4F580E516B40800504D9007C7F82828E0
:1007C600730207DF0207E30207E70207EB0207EF00
:1007D6000207F70207FF020807D292800ED2928024
:1007E60012D2928016D292801AC292D291D2908060
:1007F60016C292D291C290800EC292C291D29080BD
:1008060006C292C291C29074172516F8E6F580C307
:10081600E5169407748094805003051622E4F516B5
:0108260022AF
:100BD500ED900C4093FE74172FF8A606EF540170A4
:100BE50012EFD3940074809480400874172FF8E6B0
:040BF5004480F62220
:0D0DA000016E3600000000000000000000A1
:1008A300C181C182080D0000000000000000010B9F
:1008B30000010C0001150001080002090000C1003D
:100512007552AA78537C007D007BFF7A0D79A47E08
:10052200007F091200F6E4F55CD2AF120DBE120C88
:10053200627F017E001206387F807E25120A6812D1
:1005420006BCE57C600BE4F57C120BF98F5C1209AA
:1005520003E515704530011CC201FB7A00790D12CA
:100562000A11E5136552600C7B007A00790D1207BF
:100572003B8513523002C8C2027560007561007576
:1005820062537B007A00790D1204597B007A00795C
:10059200537D087C00120B3B80A53001A2C2017B77
:0A05A200007A00790D120C8180959B
:040638008E5D8F5EE6
:10063C00E47B0CFAF9F8900DA01203651202C0E4E9
:10064C007BE87A03F9F81202C0A804A905AA06AB44
:10065C0007AE5DAF5EE4FCFD1202358F628E618DDC
:10066C00608C5FC3E49562F562E49561F561740199
:10067C009560F560E4955FF55FE562240CF562E446
:10068C003561F561E43560F560E4355FF55FAF62C7
:10069C00AE61AD60FC78081203528F0B85620C536F
:0F06AC0089F0438901850B8C850C8AD2A9D28CE9
:0106BB00221C
:03000B00020827C1
:10082700C0E0C0F0C083C082C0D075D000C000C097
:0D08370001C002C003C004C005C006C00718
:10084400850B8C850C8A1207B61203750508C3E55F
:100854000894C8748094804005750800D201050A84
:10086400E50A70020509C394E8E509940340087594
:070874000900750A00D20221
:10087B00D007D006D005D004D003D002D001D000D1
:0B088B00D0D0D082D083D0F0D0E0327B
:10073B008B608A618962900006120135540FFD7F30
:10074B0002120BD5AB60AA61A962900006120135AB
:10075B00C45407FD7F03120BD5AB60AA61A962904D
:10076B000005120135540FFD7F04120BD5AB60AAA7
:10077B0061A962900005120135C45407FD7F051273
:10078B000BD5AB60AA61A962900004120135540F1E
:10079B00FD7F06120BD5AB60AA61A9629000041213
:0B07AB000135C45403FD7F07020BD58D
:060C81008B5D8A5E895FB5
:100C8700B2002000077D11AF15020BD5AB5DAA5E40
:050C9700A95F12073BFC
:010C9C002235
:100459008B5D8A5E895F1201EBE5F0AB60AA61A949
:1004690062120162AB5DAA5EA95F1201EBAB60AAE1
:1004790061A962900001120174AB5DAA5EA95F9047
:100489000002120135AB60AA61A962900002120153
:1004990074AB5DAA5EA95F900003120135AB60AA37
:1004A90061A962900003120174AB5DAA5EA95F9015
:1004B9000004120135AB60AA61A96290000412011F
:1004C90074AB5DAA5EA95F900005120135AB60AA05
:1004D90061A962900005120174AB5DAA5EA95F90E3
:1004E9000006120135AB60AA61A9629000061201EB
:1004F90074AB5DAA5EA95F900007120135AB60AAD3
:0905090061A9629000070201746F
:100903008F5FE5157008EF640D7050020DC4E55F4D
:10091300C39430400DE55FD394395006E4FDFF02E4
:100923000BD5E55F6426700302095FE55F642870F9
:10093300030209B8E55F64257003020D28E55F64CF
:10094300277003020D3AE55F640D7004D20380083B
:0C095300E55F641B7005C203120D9122C9
:040DC4007515072278
:0F0D9100E4F515300308FB7A00790D120AFA22F7
:100D2800C3E5159407748094804004751502220564
:020D3800152282
:100D3A00D3E5159402748094805004751507221522
:020D4A00152270
:10000E00EF54F0C3949074809480500574102FFFB9
:05001E002253070F2230
:100D4C00EF540FC394097480948050020F22530700
:020D5C00F02283
:100D0000EF54F0D3940074809480400574F02FFF6A
:050D10002243079022C0
:100D5E00EF540FD394007480948040021F224307F7
:020D6E00F7226A
:10095F00AD15E4FF120BD5E51524FE603C14603095
:10096F0014602414601814600C147034AF1112004A
:10097F000E8F11802BAF11120D4C8F118022AF12E1
:10098F0012000E8F128019AF12120D4C8F128010A1
:10099F00AF1312000E8F138007AF13120D4C8F136E
:0909AF007B007A00790D02073B80
:1009B800AD15E4FF120BD5E51524FE603C1460303C
:1009C80014602414601814600C147034AF11120DE4
:1009D800008F11802BAF11120D5E8F118022AF1284
:1009E800120D008F128019AF12120D5E8F12801037
:1009F800AF13120D008F138007AF13120D5E8F1304
:090A08007B007A00790D02073B26
:100D8100313233263435362837383925301B0D2793
:1008C30010420101010101010101010101010101C5
:1008D30001011021010101010101010101010101D6
:1008E300010101010131001032FFFFFFFFFFFFFF94
:0908F300FFFFFFFFFFFFFFFFFF05
:1006BC00E4F55DC3E55D9404748094805070E4F5BA
:1006CC005EC3E55E940474809480505EE55D25E025
:1006DC0025E02442255EF8E6FFE55D25E025E024D3
:1006EC0021255EF8E6FE6F603DEE6020E55D25E0BD
:1006FC0025E02481F582E4340DF583E582255EF551
:10070C0082E43583F583E493FF120903E55D25E06C
:10071C0025E02442255EF8E6FFE55D25E025E02492
:0E072C0021255EF8A607055E8097055D808595
:01073A00229C
:10037500E53125E025E02432F8E625E0FFA2A4E4F6
:10038500334FFFE53125E025E02432F8A607E531B6
:1003950025E025E02433F8E625E0FFA2A5E4334F68
:1003A500FFE53125E025E02433F8A607E53125E012
:1003B50025E02434F8E625E0FFA2A6E4334FFFE567
:1003C5003125E025E02434F8A607E53125E025E0D0
:1003D5002435F8E625E0FFA2A7E4334FFFE53125F4
:1003E500E025E02435F8A607E4FFEFC39404748004
:1003F50094805035E53125E025E024322FF8E65488
:100405000FFD7C00700EE53125E025E024422FF834
:10041500E4F68012ED640F4C700CE53125E025E023
:1004250024422FF876010F80C1E531146010146065
:100435001314601624037016D2A0C2A18010D2A195
:10044500C2A2800AD2A2C2A38004D2A3C2A005314F
:030455005331031D
:010458002281
:0608FC00017A00017B00FF
:100A68008E5D8F5E75985053890F43892043878028
:100A7800E47B0CFAF9F8900DA01203651202C0E4A9
:100A88007B10FAF9F81202C0C006C007AE5DAF5E6F
:100A9800AB07AA06E4F9F8D007D0061202C0EFF4B3
:0D0AA80004F58D858D8BC2ABD2ACD28E22B1
:03002300020AB519
:100AB500C0E0C0F0C083C082C0D075D000C000C007
:100AC50001C002C003C004C005C006C00730980AB3
:100AD500C298AF99120CB8757C01D007D006D00525
:100AE500D004D003D002D001D000D0D0D082D083A2
:050AF500D0F0D0E0325A
:100B3B008B5D8A5E895F8C608D61D3E5619400E586
:100B4B006094004022AB5DAA5EA95F12011CFF12EC
:100B5B000DB67401255FF55FE4355EF55EE5611555
:080B6B006170D7156080D322F0
:100C1D008B778A788979AB77AA78A97912011CFF2D
:100C2D006010120DB674012579F579E43578F578F3
:030C3D0080E4222E
:080DB6008F993099FDC29922CA
:060DBE00E4F575F5762254
:090DAD00E575B57602D322C322DC
:100CE900E5762401FFE433FE7C007D0A120196EDCE
:070CF900B57502D322C322EE
:100CB800AB07120CE94012E576640A7002F576AFCC
:0A0CC800760576746B2FF8A6032260
:100BF900E4FF120DAD50037FFF22E575640A700210
:100C0900F575746B2575F8E6FFAE750575746B2E71
:030C1900F8E4F606
:010C1C0022B5
:1005B800020512E493A3F8E493A34003F68001F242
:1005C80008DFF48029E493A3F85407240CC8C33344
:1005D800C4540F4420C8834004F456800146F6DF13
:1005E800E4800B0102040810204080900896E47E05
:1005F800019360BCA3FF543F30E509541FFEE49308
:10060800A360010ECF54C025E060A840B8E493A3CE
:10061800FAE493A3F8E493A3C8C582C8CAC583CAF9
:10062800F0A3C8C582C8CAC583CADFE9DEE780BEB1
:0109020000F4
:10002600E709F608DFFA8046E709F208DFFA803EBC
:1000360088828C83E709F0A3DFFA8032E309F608A9
:10004600DFFA8078E309F208DFFA807088828C8311
:10005600E309F0A3DFFA806489828A83E0A3F608C5
:10006600DFFA805889828A83E0A3F208DFFA804C9F
:1000760080D280FA80C680D4806980F28033801076
:1000860080A680EA809A80A880DA80E280CA8033DF
:1000960089828A83ECFAE493A3C8C582C8CCC58357
:1000A600CCF0A3C8C582C8CCC583CCDFE9DEE78027
:1000B6000D89828A83E493A3F608DFF9ECFAA9F0A6
:1000C600EDFB2289828A83ECFAE0A3C8C582C8CCFC
:1000D600C583CCF0A3C8C582C8CCC583CCDFEADE15
:1000E600E880DB89828A83E493A3F208DFF980CC77
:1000F60088F0EF60010E4E60C388F0ED2402B40470
:100106000050B9F582EB2402B4040050AF23234516
:06011600822390007673C5
:10011C00BB010689828A83E0225002E722BBFE02E1
:09012C00E32289828A83E4932214
:10013500BB010CE58229F582E5833AF583E022507F
:1001450006E92582F8E622BBFE06E92582F8E222C9
:0D015500E58229F582E5833AF583E49322E3
:10016200BB010689828A83F0225002F722BBFE017C
:02017200F32276
:10017400F8BB010DE58229F582E5833AF583E8F0C1
:10018400225006E92582C8F622BBFE05E92582C86D
:02019400F22255
:10019600BC000BBE0029EF8DF084FFADF022E4CC4D
:1001A600F875F008EF2FFFEE33FEEC33FCEE9DEC16
:1001B600984005FCEE9DFE0FD5F0E9E4CEFD22ED5C
:1001C600F8F5F0EE8420D21CFEADF075F008EF2FA6
:1001D600FFED33FD4007985006D5F0F222C398FD97
:0501E6000FD5F0EA2234
:1001EB00BB010A89828A83E0F5F0A3E022500687DF
:1001FB00F009E71922BBFE07E3F5F009E3192289A1
:0B020B00828A83E493F5F074019322D3
:10021600BB010A89828A83F0E5F0A3F0225006F733
:0F02260009A7F01922BBFE06F3E5F009F3192230
:10023500E88FF0A4CC8BF0A42CFCE98EF0A42CFC68
:100245008AF0EDA42CFCEA8EF0A4CDA8F08BF0A4E6
:100255002DCC3825F0FDE98FF0A42CCD35F0FCEB45
:100265008EF0A4FEA9F0EB8FF0A4CFC5F02ECD390A
:0F027500FEE43CFCEAA42DCE35F0FDE43CFC2277
:1002840075F008758200EF2FFFEE33FECD33CDCC31
:1002940033CCC58233C5829BED9AEC99E5829840B4
:1002A4000CF582EE9BFEED9AFDEC99FC0FD5F0D691
:1002B400E4CEFBE4CDFAE4CCF9A88222B800C1B9BB
:1002C4000059BA002DEC8BF084CFCECDFCE5F0CBF9
:1002D400F97818EF2FFFEE33FEED33FDEC33FCEB32
:1002E40033FB10D703994004EB99FB0FD8E5E4F9ED
:1002F400FA227818EF2FFFEE33FEED33FDEC33FCDA
:10030400C933C910D7059BE99A4007EC9BFCE99ACD
:10031400F90FD8E0E4C9FAE4CCFB2275F010EF2F12
:10032400FFEE33FEED33FDCC33CCC833C810D70712
:100334009BEC9AE899400AED9BFDEC9AFCE899F84D
:0E0344000FD5F0DAE4CDFBE4CCFAE4C8F922E0
:10035200E8600FECC313FCED13FDEE13FEEF13FF89
:03036200D8F122AD
:10036500E493FC740193FD740293FE740393FF22DE
:00000001FF
