:0300000002008477
:0C008400787FE4F6D8FD75810B02006B5C
:10000300E4FED2B6D2B5EF1392B4EFC313FFC2B678
:100013000000D2B600000EBE08ECE4FEED1392B46D
:10002300EDC313FDC2B60000D2B600000EBE08EC4D
:10003300E4FEEB1392B4EBC313FBC2B60000D2B6DB
:1000430000000EBE08ECE4FEE50B1392B4E50BC30F
:1000530013F50BC2B60000D2B600000EBE08E9C20B
:07006300B50000D2B500005A
:01006A002273
:10006B00750B807B01E4FDFF120003750BFF7BFF1B
:09007B007D7F7FFE12000380E787
:00000001FF
