:030000000201E317
:0C01E300787FE4F6D8FD7581200200034F
:100169007F381201C37F0C1201C37F061201C37FBE
:04017900010201C3BB
:10017D007580FFC2A6D2A5D2A7AF80C2A7EF20E798
:01018D00F67B
:01018E00224E
:1001C300AE0712017DC2A6C2A58E80D2A7C2A72206
:1001D300AE0712017DD2A6C2A58E80D2A7C2A722E6
:10018F00ED7004AC078004EF2440FCEC4480FF02C8
:02019F0001C39A
:10013E0012018F120125FF600C1201D3740129F9EF
:06014E00E43AFA80EE2203
:1001A10012018FAF031BEF60077F201201D380F391
:0101B100222B
:1001B200D2A0D2A100000000C2A000000000C2A193
:0101C200221A
:10015400C2A1C2A000000000D2A100000000D2A0F1
:05016400000000002274
:10004D00E515601D5F7004C2A08002D2A000000003
:10005D0000D2A100000000C2A1E515C313F5158063
:10006D00DFD2A000000000D2A1A2A09200000000EB
:06007D0000C2A1A200B3C5
:01008300225A
:10008400D2A07E80EE601D00000000D2A120A00559
:10009400F452078003EE420700000000C2A1EEC341
:1000A40013FE80E0D2A000000000D2A100000000F6
:0200B400C2A1E7
:0100B6002227
:1000B700D2A07E80EE601D00000000D2A120A00526
:1000C700F452078003EE420700000000C2A1EEC30E
:1000D70013FE80E0C2A000000000D2A100000000D3
:0200E700C2A1B4
:0100E90022F4
:100003001201697F031200EA8F08E50875F0648422
:100013002430F509E50875F00A8475F00A84E5F0E3
:100023002430F50AE50875F00A84E5F02430F50B71
:10003300E4F50CFB7A007909FDFCFFFE12013E0595
:0A00430008AD087F0312010C80FED7
:0200EA008F1372
:1000EC001201B27FA012004DAF1312004D1201B2DB
:0F00FC007FA112004D1200848F14120154AF1413
:01010B0022D1
:10010C008F138D141201B27FA012004DAF13120089
:09011C004DAF1412004D02015414
:10012500BB010689828A83E0225002E722BBFE02D8
:09013500E32289828A83E493220B
:00000001FF
