:030000000200D328
:0C00D300787FE4F6D8FD75812002000360
:100003001200B1D200D2011200C61200971200B141
:100013001200C2120097D200D2011200B51200C220
:10002300120097D200C2011200B51200C21200974B
:10003300D200C2011200B5C200D2011200C61200E2
:1000430097D200C2011200B5C200C2011200C6124B
:100053000097C200D2011200B5C200C2011200C64D
:100063001200971200B1C200C2011200C67F407E87
:040073004202009BAA
:0400B100C200C201C6
:0D00B500A2009290A2019292A201929322C9
:0400C200D200C201A5
:0D00C600A2009291A2019294A201929522B3
:040097007F407E42E6
:10009B008F0B8E0A8D098C08780874FF120079EC8F
:0600AB004D4E4F70F322E0
:100077007401FF3395E0FEFDFC080808E6CF2FF674
:1000870018E6CE3EF618E6CD3DF618E6CC3CF6224D
:00000001FF
