:0300000002026495
:0C026400787FE4F6D8FD7581390202AB0A
:100562003F065B4F666D7D077F6F777C395E7971E1
:02057200400047
:1004CA000824FFFFFFFF00000000073300000000C0
:1004DA00000000012C00012F00012D00013000C195
:0404EA0004012100E8
:1003B400D2AF12054C00007F011202F07FE8120355
:1003C40052D2B93004FDC2047B007A0079331200A2
:1003D4001EE53990056293F52AE53893F529E5374A
:1003E40093F528432880E53693F527E53593F526DC
:0C03F400E53493F525E53393F52480C72C
:06001E008B088A09890A23
:10002400E4F50BE532AE31780FCEA2E713CE13D848
:10003400F8139200E532AE317804CEA2E713CE1362
:10004400D8F8547FF52E752200E532540FF523AE0F
:1000540022FF7C277D1012017CEEC4F854F0C8689E
:10006400F522EFC4540F48F523AE22FF7C007D0A2D
:1000740012018EAF05AB08AA09A90AAE0B050B8EB7
:1000840082758300EF12015AAE22AF237C007D0AF1
:1000940012018E7C007D0A12018EAF05AB08AA09FD
:1000A400A90AAE0B050B8E82758300EF12015AAEBE
:1000B40022AF237C007D6412018E7C007D0A120134
:1000C4008EAF05AB08AA09A90AAE0B050B8E827583
:1000D4008300EF12015AAE22AF237C037DE81201A4
:1000E4008E7C007D0A12018EAF05AB08AA09A90A0D
:1000F400AE0B050B8E82758300EF12015AE52E7547
:10010400F00A84AFF0AE0B050B8E82758300EF12FC
:10011400015AE52E75F00A8475F00A84AFF0AE0B2F
:10012400050B8E82758300EF12015AAB08AA09A948
:100134000A20000A850B8275830074118008850BE0
:1001440082758300741012015AE52EC3941940037A
:05015400C2A022D2A0B0
:010159002283
:1002F000E4FCFDFE7BE87A03F9F81202028F0B8E14
:100300000A8D098C08C3E4950BF50BE4950AF50AF0
:1003100074019509F509E49508F508E50B240CF539
:100320000BE4350AF50AE43509F509E43508F50862
:10033000AF0BAE0AAD09FC78081202518F2C850B69
:100340002F5389F0438901852C8C852F8AD2A9D21D
:010350008C20
:010351002289
:1004EF00E4F580E521F4FFE59054F84FF59074247E
:1004FF002521F8E6F580E521C39407500305212255
:03050F00E4F521EF
:0105120022C6
:03000B00020513D8
:10051300C0E0C0D075D000C000C007852C8C852FEB
:0D0523008A1204EFD007D000D0D0D0E03213
:10035200E4FCFDFE7BE87A03F9F81202028F0B8EB1
:100362000A8D098C08C3E4950BF50BE4950AF50A8E
:1003720074019509F509E49508F508E50B240CF5D7
:100382000BE4350AF50AE43509F509E43508F50800
:10039200AF0BAE0AAD09FC78081202518F2D850B06
:1003A2003053890F438910852D8D85308BD2ABD286
:0103B2008EBC
:0103B3002227
:03001B00020400DC
:10040000C0E0C0F0C083C082C0D075D000C000C0C2
:1004100001C002C003C004C005C006C007852D8D01
:1004200085308B7B007A00793112044C12054CD256
:1004300004D007D006D005D004D003D002D001D01C
:0C04400000D0D0D082D083D0F0D0E032C9
:0B000E000000000000000000DFF622F0
:10053000C2AFC2B77F3212000ED2B77F0612000ED2
:0B054000A2B7920330B7FDD2AFA203B8
:01054B00228D
:0204A400AE07A1
:1004A600C2AF7D01ED601AC2B700005E7004C2B72C
:1004B6008002D2B77F0612000ED2B7ED25E0FD808E
:0304C600E3D2AFCF
:0104C9002210
:10047A00C2AF7D01ED601EC2B70000D2B7000020F6
:10048A00B705F452068003ED42067F0612000EED10
:09049A0025E0FD80DFD2AFAF06C2
:0104A3002236
:10054C00120530920220020A7FCC1204A47F4412BE
:05055C0004A4A202B39B
:010561002277
:10044C0012053092022002227FCC1204A47FBE122D
:10045C0004A412047AAC0712047AEFFEAD047C00FB
:0D046C00E42DFFEC3E8FF01201E3A202B37D
:010479002260
:100270000203B4E493A3F8E493A34003F68001F2ED
:1002800008DFF48029E493A3F85407240CC8C3338F
:10029000C4540F4420C8834004F456800146F6DF5E
:1002A000E4800B01020408102040809004CAE47E20
:1002B000019360BCA3FF543F30E509541FFEE49353
:1002C000A360010ECF54C025E060A840B8E493A31A
:1002D000FAE493A3F8E493A3C8C582C8CAC583CA45
:1002E000F0A3C8C582C8CAC583CADFE9DEE780BEFD
:0104EE00000D
:10015A00F8BB010DE58229F582E5833AF583E8F0DB
:10016A00225006E92582C8F622BBFE05E92582C887
:02017A00F2226F
:10017C00EF8DF0A4A8F0CF8CF0A428CE8DF0A42E97
:02018C00FE2251
:10018E00BC000BBE0029EF8DF084FFADF022E4CC55
:10019E00F875F008EF2FFFEE33FEEC33FCEE9DEC1E
:1001AE00984005FCEE9DFE0FD5F0E9E4CEFD22ED64
:1001BE00F8F5F0EE8420D21CFEADF075F008EF2FAE
:1001CE00FFED33FD4007985006D5F0F222C398FD9F
:0501DE000FD5F0EA223C
:1001E300BB010A89828A83F0E5F0A3F0225006F767
:0F01F30009A7F01922BBFE06F3E5F009F3192264
:10020200E88FF0A4CC8BF0A42CFCE98EF0A42CFC9B
:100212008AF0EDA42CFCEA8EF0A4CDA8F08BF0A419
:100222002DCC3825F0FDE98FF0A42CCD35F0FCEB78
:100232008EF0A4FEA9F0EB8FF0A4CFC5F02ECD393D
:0F024200FEE43CFCEAA42DCE35F0FDE43CFC22AA
:10025100E8600FECC313FCED13FDEE13FEEF13FF8B
:03026100D8F122AF
:00000001FF
