:0300000002038276
:0C038200787FE4F6D8FD7581200203C9E5
:1005DA0062616420636F6D6D616E642E0D0A006244
:1005EA00757A7A206F6E0062757A7A206F66660075
:1005FA0073686F777374720007080705E905F105D8
:01060A00FAF5
:08069200C102011D00011E0060
:10067A00D2AF7F017E0012040E7F807E2512060B08
:08068A0012000E12065E80FB57
:10040E00E4FCFD7BD07A07F9F81201698F0B8E0A96
:10041E008D098C08C3E4950BF50BE4950AF50A7467
:10042E00019509F509E49508F508E50B240CF50B83
:10043E00E4350AF50AE43509F509E43508F508AF9F
:10044E000BAE0AAD09FC78081201B88F1D850B1E84
:10045E005389F0438901851D8C851E8AD2A9D28CC1
:01046E00226B
:03000B0002046F7D
:10046F00C0E0C0F0C083C082C0D075D000C000C053
:10047F0001C002C003C004C005C006C007851D8CA3
:10048F00851E8A300204B2B28002D2B27F011204FA
:10049F00FFD007D006D005D004D003D002D001D0B2
:0C04AF0000D0D0D082D083D0F0D0E0325A
:100537008B138A148915AF191519EF6028AB1605A7
:1005470018E518AA177002051714F912011CFFAB5A
:10055700130515E515AA147002051414F912011CE8
:070567006F60D3C322D32211
:080299008B088A09890A8D0B0C
:1002A100780D7C007D007BFF7A0679057E007F0654
:1002B1001200F6E4F50CC3E50C94037480948050AD
:1002C10032E50C90060293FFE50BC39F4021E50C3C
:1002D10025E0240DF8E6FC08E6AA047516FF8A1746
:1002E100F5188F19AB08AA09A90A120537400405A8
:1002F1000C80C3E50C14600B14600C2402701FD237
:10030100028026C2028022900604E493FF250AF5AA
:100311000AE43509F509C3E50B9FF50B800B7BFF5B
:100321007A0579DA7D0E120637AB08AA09A90A8582
:100331000B82758300E4120147E4FDFF1206A885D4
:100341000B0CC3E50C941074809480500DC3741091
:10035100950CFBE4FDAF0C1206E2AB08AA09A90A51
:10036100AF0B050B8F82758300740D120147AF0B24
:10037100050B8F82758300740A120147AD0B0206CB
:010381003744
:0D069A00C100C101011C00011A00011B007C
:10060B0075985053890F438920438780AB07AA06FF
:10061B00E4F9F87F487EE87D01FC1204BBEFF4049B
:0C062B00F58D858D8BC2ABD2ACD28E2237
:0300230002056E65
:10056E00C0E0C0D075D000C000C007309818C29847
:10057E00C3E51C944074809480500BAF1C051C7412
:10058E00002FF8E599F2309904C299D201D007D024
:06059E0000D0D0D0E032D5
:100637008B138A148915AF051DEF601AC201AB131E
:100647000515E515AA147002051414F912011CF515
:07065700992001E280FB2263
:0605A4008B088A09890A98
:1005AA00EDD3951C4002AD1CE4FFEFC39D501B74B4
:1005BA00002FF8E2FEAB08050AE50AAA097002054F
:0F05CA000914F9EE1201350F80E0E4F51CAF05BE
:0105D90022FF
:1004FF00E51CD39400748094804029E51A651C6034
:10050F0007851C1AE4F51B22E51BC3941E74809407
:10051F00805014EF251BF51BC3941E7480948040EC
:07052F0006D20022E4F51AD8
:0105360022A2
:10065E00300018C2007BFE7A0079407D281205A476
:0B066E00AD077BFE7A00794012029974
:01067900225E
:10000E007F381206F37F0C1206F37F061206F37F7B
:04001E00010206F3E2
:1006BE007580FFC2A6D2A5D2A7AF80C2A7EF20E752
:0106CE00F635
:0106CF002208
:1006F300AE071206BEC2A6C2A58E80D2A7C2A7228B
:10070300AE071206BED2A6C2A58E80D2A7C2A7226A
:1006D000ED7004AC078004EF2440FCEC4480FF0282
:0206E00006F31F
:1006A8001206D012011CFF600C120703740129F90D
:0606B800E43AFA80EE2294
:1006E2001206D0AF031BEF60077F2012070380F3CF
:0106F20022E5
:10038E0002067AE493A3F8E493A34003F68001F205
:10039E0008DFF48029E493A3F85407240CC8C33370
:1003AE00C4540F4420C8834004F456800146F6DF3F
:1003BE00E4800B0102040810204080900692E47E37
:1003CE00019360BCA3FF543F30E509541FFEE49334
:1003DE00A360010ECF54C025E060A840B8E493A3FB
:1003EE00FAE493A3F8E493A3C8C582C8CAC583CA26
:1003FE00F0A3C8C582C8CAC583CADFE9DEE780BEDE
:0106A7000052
:10002600E709F608DFFA8046E709F208DFFA803EBC
:1000360088828C83E709F0A3DFFA8032E309F608A9
:10004600DFFA8078E309F208DFFA807088828C8311
:10005600E309F0A3DFFA806489828A83E0A3F608C5
:10006600DFFA805889828A83E0A3F208DFFA804C9F
:1000760080D280FA80C680D4806980F28033801076
:1000860080A680EA809A80A880DA80E280CA8033DF
:1000960089828A83ECFAE493A3C8C582C8CCC58357
:1000A600CCF0A3C8C582C8CCC583CCDFE9DEE78027
:1000B6000D89828A83E493A3F608DFF9ECFAA9F0A6
:1000C600EDFB2289828A83ECFAE0A3C8C582C8CCFC
:1000D600C583CCF0A3C8C582C8CCC583CCDFEADE15
:1000E600E880DB89828A83E493A3F208DFF980CC77
:1000F60088F0EF60010E4E60C388F0ED2402B40470
:100106000050B9F582EB2402B4040050AF23234516
:06011600822390007673C5
:10011C00BB010689828A83E0225002E722BBFE02E1
:09012C00E32289828A83E4932214
:10013500BB010689828A83F0225002F722BBFE01A9
:02014500F322A3
:10014700F8BB010DE58229F582E5833AF583E8F0EE
:10015700225006E92582C8F622BBFE05E92582C89A
:02016700F22282
:10016900E88FF0A4CC8BF0A42CFCE98EF0A42CFC35
:100179008AF0EDA42CFCEA8EF0A4CDA8F08BF0A4B3
:100189002DCC3825F0FDE98FF0A42CCD35F0FCEB12
:100199008EF0A4FEA9F0EB8FF0A4CFC5F02ECD39D7
:0F01A900FEE43CFCEAA42DCE35F0FDE43CFC2244
:1004BB00C2D5E830E70FB2D5E4C39BFBE49AFAE46C
:1004CB0099F9E498F8EC30E717B2D51204F112025F
:1004DB0007E4C39BFBE49AFAE499F9E498F88003E8
:1004EB0012020730D50DE4C39FFFE49EFEE49DFD91
:0404FB00E49CFC225F
:1001B800E8600FECC313FCED13FDEE13FEEF13FF25
:0301C800D8F12249
:1001CB0075F008758200EF2FFFEE33FECD33CDCCEB
:1001DB0033CCC58233C5829BED9AEC99E58298406E
:1001EB000CF582EE9BFEED9AFDEC99FC0FD5F0D64B
:1001FB00E4CEFBE4CDFAE4CCF9A88222B800C1B975
:10020B000059BA002DEC8BF084CFCECDFCE5F0CBB2
:10021B00F97818EF2FFFEE33FEED33FDEC33FCEBEB
:10022B0033FB10D703994004EB99FB0FD8E5E4F9A6
:10023B00FA227818EF2FFFEE33FEED33FDEC33FC93
:10024B00C933C910D7059BE99A4007EC9BFCE99A87
:10025B00F90FD8E0E4C9FAE4CCFB2275F010EF2FCC
:10026B00FFEE33FEED33FDCC33CCC833C810D707CC
:10027B009BEC9AE899400AED9BFDEC9AFCE899F807
:0E028B000FD5F0DAE4CDFBE4CCFAE4C8F9229A
:00000001FF
