:0300000002014EAC
:0C014E00787FE4F6D8FD75812002019551
:0D000E0005121E29333C444B51565A5D5FCC
:1003A800010F0001110001130001140001100001E8
:1003B8001200040B0000000002080000C100010A3E
:0103C8000034
:1003CA00D2AF7D0A7C007F647E001202557F017ED7
:0603DA00001202C580FEC6
:040255008C158D1661
:10025900AB07AA06E4F9F8FF7E407D1FFC120325CF
:100269008F0E8E0D8D0C8C0BAE15AF16E4FCFDAB0D
:100279000EAA0DA90CA80B12001EE47B64FAF9F86A
:100289001200A9AD07AC06C3E50E9DFFE50D9CABB9
:1002990007FAC3740C9DFDE49CFCC3740C9BFBE43E
:1002A9009A8C0F8D11F5138B145389F043890185AD
:0B02B9000F8C85118AD2A9D28CD28054
:0102C4002217
:03000B000203E00D
:1003E00030800985138C85148AC28032850F8C85F4
:0503F000118AD28032E9
:10036900E4FCFDFEAB0EAA0DA90CA80B12001EE4BD
:100379007B64FAF9F81200A9AD07AC06C3E50E9D36
:10038900FFE50D9CAB07FAC3740C9DFDE49CFCC30F
:0E039900740C9BFBE49A8C0F8D11F5138B14E2
:0103A7002233
:1002C500E4FCFDFB7A08F9F812001E8F188E178DD5
:1002D500168C15C3E49518F518E49517F5177401F0
:1002E5009516F516E49515F515E518240CF518E49D
:1002F5003517F517E43516F516E43515F515AF1868
:10030500AE17AD16FC780812013B8F1085181253F5
:0F031500890F43891085108D85128BD2ABD28E44
:0103240022B6
:03001B000201DA05
:1001DA00C0E0C0F0C083C082C0D075D000C000C0EB
:0D01EA0001C002C003C004C005C006C0076C
:1001F70085108D85128B0509E50970020508C394E2
:1002070032E5089400402C750800750900E50A904E
:10021700000E93FF120369200011050AC3E50A9433
:100227000C74809480400CD2008008150AE50A708F
:0302370002C20000
:10023A00D007D006D005D004D003D002D001D00018
:0B024A00D0D0D082D083D0F0D0E032C2
:10015A000203CAE493A3F8E493A34003F68001F2EE
:10016A0008DFF48029E493A3F85407240CC8C333A6
:10017A00C4540F4420C8834004F456800146F6DF75
:10018A00E4800B01020408102040809003A8E47E5A
:10019A00019360BCA3FF543F30E509541FFEE4936A
:1001AA00A360010ECF54C025E060A840B8E493A331
:1001BA00FAE493A3F8E493A3C8C582C8CAC583CA5C
:1001CA00F0A3C8C582C8CAC583CADFE9DEE780BE14
:0103C9000033
:10001E00E88FF0A4CC8BF0A42CFCE98EF0A42CFC81
:10002E008AF0EDA42CFCEA8EF0A4CDA8F08BF0A4FF
:10003E002DCC3825F0FDE98FF0A42CCD35F0FCEB5E
:10004E008EF0A4FEA9F0EB8FF0A4CFC5F02ECD3923
:0F005E00FEE43CFCEAA42DCE35F0FDE43CFC2290
:10006D0075F008758200EF2FFFEE33FECD33CDCC4A
:10007D0033CCC58233C5829BED9AEC99E5829840CD
:10008D000CF582EE9BFEED9AFDEC99FC0FD5F0D6AA
:10009D00E4CEFBE4CDFAE4CCF9A88222B800C1B9D4
:1000AD000059BA002DEC8BF084CFCECDFCE5F0CB12
:1000BD00F97818EF2FFFEE33FEED33FDEC33FCEB4B
:1000CD0033FB10D703994004EB99FB0FD8E5E4F906
:1000DD00FA227818EF2FFFEE33FEED33FDEC33FCF3
:1000ED00C933C910D7059BE99A4007EC9BFCE99AE7
:1000FD00F90FD8E0E4C9FAE4CCFB2275F010EF2F2C
:10010D00FFEE33FEED33FDCC33CCC833C810D7072B
:10011D009BEC9AE899400AED9BFDEC9AFCE899F866
:0E012D000FD5F0DAE4CDFBE4CCFAE4C8F922F9
:10032500C2D5E830E70FB2D5E4C39BFBE49AFAE403
:1003350099F9E498F8EC30E717B2D512035B12008F
:10034500A9E4C39BFBE49AFAE499F9E498F88003DD
:100355001200A930D50DE4C39FFFE49EFEE49DFD88
:04036500E49CFC22F6
:10013B00E8600FECC313FCED13FDEE13FEEF13FFA2
:03014B00D8F122C6
:00000001FF
